{
  "address": "0xf49a30a3205E9E1f1AC748481f26BAeD344Fb3A9",
  "abi": [
    {
      "inputs": [],
      "stateMutability": "nonpayable",
      "type": "constructor"
    },
    {
      "anonymous": false,
      "inputs": [
        {
          "indexed": true,
          "internalType": "address",
          "name": "owner",
          "type": "address"
        },
        {
          "indexed": true,
          "internalType": "address",
          "name": "approved",
          "type": "address"
        },
        {
          "indexed": true,
          "internalType": "uint256",
          "name": "tokenId",
          "type": "uint256"
        }
      ],
      "name": "Approval",
      "type": "event"
    },
    {
      "anonymous": false,
      "inputs": [
        {
          "indexed": true,
          "internalType": "address",
          "name": "owner",
          "type": "address"
        },
        {
          "indexed": true,
          "internalType": "address",
          "name": "operator",
          "type": "address"
        },
        {
          "indexed": false,
          "internalType": "bool",
          "name": "approved",
          "type": "bool"
        }
      ],
      "name": "ApprovalForAll",
      "type": "event"
    },
    {
      "anonymous": false,
      "inputs": [
        {
          "indexed": true,
          "internalType": "address",
          "name": "from",
          "type": "address"
        },
        {
          "indexed": true,
          "internalType": "address",
          "name": "to",
          "type": "address"
        },
        {
          "indexed": true,
          "internalType": "uint256",
          "name": "tokenId",
          "type": "uint256"
        }
      ],
      "name": "Transfer",
      "type": "event"
    },
    {
      "inputs": [],
      "name": "PUCHASE_LIMIT",
      "outputs": [
        {
          "internalType": "uint8",
          "name": "",
          "type": "uint8"
        }
      ],
      "stateMutability": "view",
      "type": "function"
    },
    {
      "inputs": [],
      "name": "SALE_LIMIT",
      "outputs": [
        {
          "internalType": "uint256",
          "name": "",
          "type": "uint256"
        }
      ],
      "stateMutability": "view",
      "type": "function"
    },
    {
      "inputs": [
        {
          "internalType": "address",
          "name": "to",
          "type": "address"
        },
        {
          "internalType": "uint256",
          "name": "tokenId",
          "type": "uint256"
        }
      ],
      "name": "approve",
      "outputs": [],
      "stateMutability": "nonpayable",
      "type": "function"
    },
    {
      "inputs": [
        {
          "internalType": "address",
          "name": "owner",
          "type": "address"
        }
      ],
      "name": "balanceOf",
      "outputs": [
        {
          "internalType": "uint256",
          "name": "",
          "type": "uint256"
        }
      ],
      "stateMutability": "view",
      "type": "function"
    },
    {
      "inputs": [
        {
          "internalType": "uint256",
          "name": "numOfTokens",
          "type": "uint256"
        }
      ],
      "name": "devMint",
      "outputs": [],
      "stateMutability": "nonpayable",
      "type": "function"
    },
    {
      "inputs": [],
      "name": "dropDeployer",
      "outputs": [],
      "stateMutability": "nonpayable",
      "type": "function"
    },
    {
      "inputs": [
        {
          "internalType": "uint256",
          "name": "tokenId",
          "type": "uint256"
        }
      ],
      "name": "getApproved",
      "outputs": [
        {
          "internalType": "address",
          "name": "",
          "type": "address"
        }
      ],
      "stateMutability": "view",
      "type": "function"
    },
    {
      "inputs": [],
      "name": "getMintRemaining",
      "outputs": [
        {
          "internalType": "uint256",
          "name": "",
          "type": "uint256"
        }
      ],
      "stateMutability": "view",
      "type": "function"
    },
    {
      "inputs": [
        {
          "internalType": "address",
          "name": "_addr",
          "type": "address"
        }
      ],
      "name": "getNumAvailableToMint",
      "outputs": [
        {
          "internalType": "uint8",
          "name": "",
          "type": "uint8"
        }
      ],
      "stateMutability": "view",
      "type": "function"
    },
    {
      "inputs": [],
      "name": "getTicketCost",
      "outputs": [
        {
          "internalType": "uint256",
          "name": "",
          "type": "uint256"
        }
      ],
      "stateMutability": "pure",
      "type": "function"
    },
    {
      "inputs": [],
      "name": "getTokenCounter",
      "outputs": [
        {
          "internalType": "uint256",
          "name": "",
          "type": "uint256"
        }
      ],
      "stateMutability": "view",
      "type": "function"
    },
    {
      "inputs": [],
      "name": "isAllowListActive",
      "outputs": [
        {
          "internalType": "bool",
          "name": "",
          "type": "bool"
        }
      ],
      "stateMutability": "view",
      "type": "function"
    },
    {
      "inputs": [
        {
          "internalType": "address",
          "name": "owner",
          "type": "address"
        },
        {
          "internalType": "address",
          "name": "operator",
          "type": "address"
        }
      ],
      "name": "isApprovedForAll",
      "outputs": [
        {
          "internalType": "bool",
          "name": "",
          "type": "bool"
        }
      ],
      "stateMutability": "view",
      "type": "function"
    },
    {
      "inputs": [],
      "name": "isBlindboxOpen",
      "outputs": [
        {
          "internalType": "bool",
          "name": "",
          "type": "bool"
        }
      ],
      "stateMutability": "view",
      "type": "function"
    },
    {
      "inputs": [],
      "name": "isSaleActive",
      "outputs": [
        {
          "internalType": "bool",
          "name": "",
          "type": "bool"
        }
      ],
      "stateMutability": "view",
      "type": "function"
    },
    {
      "inputs": [
        {
          "internalType": "uint8",
          "name": "numOfTokens",
          "type": "uint8"
        }
      ],
      "name": "mintAllowList",
      "outputs": [],
      "stateMutability": "payable",
      "type": "function"
    },
    {
      "inputs": [
        {
          "internalType": "uint8",
          "name": "numOfTokens",
          "type": "uint8"
        }
      ],
      "name": "mintTicket",
      "outputs": [
        {
          "internalType": "uint256",
          "name": "",
          "type": "uint256"
        }
      ],
      "stateMutability": "payable",
      "type": "function"
    },
    {
      "inputs": [],
      "name": "name",
      "outputs": [
        {
          "internalType": "string",
          "name": "",
          "type": "string"
        }
      ],
      "stateMutability": "view",
      "type": "function"
    },
    {
      "inputs": [
        {
          "internalType": "uint256",
          "name": "tokenId",
          "type": "uint256"
        }
      ],
      "name": "ownerOf",
      "outputs": [
        {
          "internalType": "address",
          "name": "",
          "type": "address"
        }
      ],
      "stateMutability": "view",
      "type": "function"
    },
    {
      "inputs": [
        {
          "internalType": "address",
          "name": "from",
          "type": "address"
        },
        {
          "internalType": "address",
          "name": "to",
          "type": "address"
        },
        {
          "internalType": "uint256",
          "name": "tokenId",
          "type": "uint256"
        }
      ],
      "name": "safeTransferFrom",
      "outputs": [],
      "stateMutability": "nonpayable",
      "type": "function"
    },
    {
      "inputs": [
        {
          "internalType": "address",
          "name": "from",
          "type": "address"
        },
        {
          "internalType": "address",
          "name": "to",
          "type": "address"
        },
        {
          "internalType": "uint256",
          "name": "tokenId",
          "type": "uint256"
        },
        {
          "internalType": "bytes",
          "name": "data",
          "type": "bytes"
        }
      ],
      "name": "safeTransferFrom",
      "outputs": [],
      "stateMutability": "nonpayable",
      "type": "function"
    },
    {
      "inputs": [
        {
          "internalType": "address[]",
          "name": "addresses",
          "type": "address[]"
        },
        {
          "internalType": "uint8",
          "name": "numAllowedToMint",
          "type": "uint8"
        }
      ],
      "name": "setAllowList",
      "outputs": [],
      "stateMutability": "nonpayable",
      "type": "function"
    },
    {
      "inputs": [
        {
          "internalType": "address",
          "name": "operator",
          "type": "address"
        },
        {
          "internalType": "bool",
          "name": "approved",
          "type": "bool"
        }
      ],
      "name": "setApprovalForAll",
      "outputs": [],
      "stateMutability": "nonpayable",
      "type": "function"
    },
    {
      "inputs": [
        {
          "internalType": "bool",
          "name": "_isAllowListActive",
          "type": "bool"
        }
      ],
      "name": "setIsAllowListActive",
      "outputs": [],
      "stateMutability": "nonpayable",
      "type": "function"
    },
    {
      "inputs": [
        {
          "internalType": "bool",
          "name": "_isBlindboxOpen",
          "type": "bool"
        },
        {
          "internalType": "string",
          "name": "_ticketURI",
          "type": "string"
        }
      ],
      "name": "setIsBlindboxOpen",
      "outputs": [],
      "stateMutability": "nonpayable",
      "type": "function"
    },
    {
      "inputs": [
        {
          "internalType": "bool",
          "name": "_newState",
          "type": "bool"
        }
      ],
      "name": "setSaleState",
      "outputs": [],
      "stateMutability": "nonpayable",
      "type": "function"
    },
    {
      "inputs": [
        {
          "internalType": "bytes4",
          "name": "interfaceId",
          "type": "bytes4"
        }
      ],
      "name": "supportsInterface",
      "outputs": [
        {
          "internalType": "bool",
          "name": "",
          "type": "bool"
        }
      ],
      "stateMutability": "view",
      "type": "function"
    },
    {
      "inputs": [],
      "name": "symbol",
      "outputs": [
        {
          "internalType": "string",
          "name": "",
          "type": "string"
        }
      ],
      "stateMutability": "view",
      "type": "function"
    },
    {
      "inputs": [
        {
          "internalType": "uint256",
          "name": "tokenId",
          "type": "uint256"
        }
      ],
      "name": "tokenURI",
      "outputs": [
        {
          "internalType": "string",
          "name": "",
          "type": "string"
        }
      ],
      "stateMutability": "view",
      "type": "function"
    },
    {
      "inputs": [
        {
          "internalType": "address",
          "name": "from",
          "type": "address"
        },
        {
          "internalType": "address",
          "name": "to",
          "type": "address"
        },
        {
          "internalType": "uint256",
          "name": "tokenId",
          "type": "uint256"
        }
      ],
      "name": "transferFrom",
      "outputs": [],
      "stateMutability": "nonpayable",
      "type": "function"
    }
  ],
  "transactionHash": "0x271ebee22c0d0fbb123110e0d82952ad3bc5e6ee1f6ceb60a1b6fb4d06304109",
  "args": [],
  "numDeployments": 5,
  "solcInputHash": "d972043f2fe80d1de912a3e1e645933f",
  "bytecode": "0x608060405260405180608001604052806044815260200162003e4d60449139600b90805190602001906200003592919062000184565b503480156200004357600080fd5b506040518060400160405280600c81526020017f476f2054726176656c696e6700000000000000000000000000000000000000008152506040518060400160405280600b81526020017f54726176205469636b65740000000000000000000000000000000000000000008152508160009080519060200190620000c892919062000184565b508060019080519060200190620000e192919062000184565b505050600160098190555033600660006101000a81548173ffffffffffffffffffffffffffffffffffffffff021916908373ffffffffffffffffffffffffffffffffffffffff1602179055506000600860006101000a81548160ff0219169083151502179055506000600660146101000a81548160ff0219169083151502179055506000600a60006101000a81548160ff02191690831515021790555062000299565b828054620001929062000263565b90600052602060002090601f016020900481019282620001b6576000855562000202565b82601f10620001d157805160ff191683800117855562000202565b8280016001018555821562000202579182015b8281111562000201578251825591602001919060010190620001e4565b5b50905062000211919062000215565b5090565b5b808211156200023057600081600090555060010162000216565b5090565b7f4e487b7100000000000000000000000000000000000000000000000000000000600052602260045260246000fd5b600060028204905060018216806200027c57607f821691505b6020821081141562000293576200029262000234565b5b50919050565b613ba480620002a96000396000f3fe6080604052600436106101cd5760003560e01c806370a08231116100f7578063c4e3709511610095578063e707548211610064578063e70754821461067e578063e985e9c5146106a9578063ecbc5ab1146106e6578063f75f25e214610711576101cd565b8063c4e37095146105d3578063c87b56dd146105fc578063cb208dea14610639578063ddff5b1c14610662576101cd565b806395d89b41116100d157806395d89b41146105265780639884087414610551578063a22cb46514610581578063b88d4fde146105aa576101cd565b806370a0823114610497578063718bc4af146104d45780638295784d146104fd576101cd565b806330ca9fd81161016f5780634de3241c1161013e5780634de3241c146103d9578063564566a8146104045780636352211e1461042f5780636e02007d1461046c576101cd565b806330ca9fd81461031f578063375a069a1461035c5780633a31a76b1461038557806342842e0e146103b0576101cd565b8063095ea7b3116101ab578063095ea7b314610277578063212e8f67146102a057806323b872dd146102cb57806329fc6bae146102f4576101cd565b806301ffc9a7146101d257806306fdde031461020f578063081812fc1461023a575b600080fd5b3480156101de57600080fd5b506101f960048036038101906101f49190612638565b610728565b6040516102069190612680565b60405180910390f35b34801561021b57600080fd5b5061022461080a565b6040516102319190612734565b60405180910390f35b34801561024657600080fd5b50610261600480360381019061025c919061278c565b61089c565b60405161026e91906127fa565b60405180910390f35b34801561028357600080fd5b5061029e60048036038101906102999190612841565b6108e2565b005b3480156102ac57600080fd5b506102b56109fa565b6040516102c29190612890565b60405180910390f35b3480156102d757600080fd5b506102f260048036038101906102ed91906128ab565b610a00565b005b34801561030057600080fd5b50610309610a60565b6040516103169190612680565b60405180910390f35b34801561032b57600080fd5b50610346600480360381019061034191906128fe565b610a73565b6040516103539190612947565b60405180910390f35b34801561036857600080fd5b50610383600480360381019061037e919061278c565b610ac9565b005b34801561039157600080fd5b5061039a610c5d565b6040516103a79190612890565b60405180910390f35b3480156103bc57600080fd5b506103d760048036038101906103d291906128ab565b610c68565b005b3480156103e557600080fd5b506103ee610c88565b6040516103fb9190612947565b60405180910390f35b34801561041057600080fd5b50610419610c8d565b6040516104269190612680565b60405180910390f35b34801561043b57600080fd5b506104566004803603810190610451919061278c565b610ca0565b60405161046391906127fa565b60405180910390f35b34801561047857600080fd5b50610481610d52565b60405161048e9190612890565b60405180910390f35b3480156104a357600080fd5b506104be60048036038101906104b991906128fe565b610d68565b6040516104cb9190612890565b60405180910390f35b3480156104e057600080fd5b506104fb60048036038101906104f6919061298e565b610e20565b005b34801561050957600080fd5b50610524600480360381019061051f9190612a4c565b610ecd565b005b34801561053257600080fd5b5061053b611003565b6040516105489190612734565b60405180910390f35b61056b60048036038101906105669190612aac565b611095565b6040516105789190612890565b60405180910390f35b34801561058d57600080fd5b506105a860048036038101906105a39190612ad9565b6112d0565b005b3480156105b657600080fd5b506105d160048036038101906105cc9190612c49565b6112e6565b005b3480156105df57600080fd5b506105fa60048036038101906105f5919061298e565b611348565b005b34801561060857600080fd5b50610623600480360381019061061e919061278c565b6113f5565b6040516106309190612734565b60405180910390f35b34801561064557600080fd5b50610660600480360381019061065b9190612d6d565b6114bd565b005b61067c60048036038101906106779190612aac565b611582565b005b34801561068a57600080fd5b506106936116e6565b6040516106a09190612890565b60405180910390f35b3480156106b557600080fd5b506106d060048036038101906106cb9190612dc9565b6116fd565b6040516106dd9190612680565b60405180910390f35b3480156106f257600080fd5b506106fb611791565b6040516107089190612680565b60405180910390f35b34801561071d57600080fd5b506107266117a4565b005b60007f80ac58cd000000000000000000000000000000000000000000000000000000007bffffffffffffffffffffffffffffffffffffffffffffffffffffffff1916827bffffffffffffffffffffffffffffffffffffffffffffffffffffffff191614806107f357507f5b5e139f000000000000000000000000000000000000000000000000000000007bffffffffffffffffffffffffffffffffffffffffffffffffffffffff1916827bffffffffffffffffffffffffffffffffffffffffffffffffffffffff1916145b80610803575061080282611878565b5b9050919050565b60606000805461081990612e38565b80601f016020809104026020016040519081016040528092919081815260200182805461084590612e38565b80156108925780601f1061086757610100808354040283529160200191610892565b820191906000526020600020905b81548152906001019060200180831161087557829003601f168201915b5050505050905090565b60006108a7826118e2565b6004600083815260200190815260200160002060009054906101000a900473ffffffffffffffffffffffffffffffffffffffff169050919050565b60006108ed82610ca0565b90508073ffffffffffffffffffffffffffffffffffffffff168373ffffffffffffffffffffffffffffffffffffffff16141561095e576040517f08c379a000000000000000000000000000000000000000000000000000000000815260040161095590612edc565b60405180910390fd5b8073ffffffffffffffffffffffffffffffffffffffff1661097d61192d565b73ffffffffffffffffffffffffffffffffffffffff1614806109ac57506109ab816109a661192d565b6116fd565b5b6109eb576040517f08c379a00000000000000000000000000000000000000000000000000000000081526004016109e290612f6e565b60405180910390fd5b6109f58383611935565b505050565b6103e881565b610a11610a0b61192d565b826119ee565b610a50576040517f08c379a0000000000000000000000000000000000000000000000000000000008152600401610a4790613000565b60405180910390fd5b610a5b838383611a83565b505050565b600660149054906101000a900460ff1681565b6000600760008373ffffffffffffffffffffffffffffffffffffffff1673ffffffffffffffffffffffffffffffffffffffff16815260200190815260200160002060009054906101000a900460ff169050919050565b600660009054906101000a900473ffffffffffffffffffffffffffffffffffffffff1673ffffffffffffffffffffffffffffffffffffffff163373ffffffffffffffffffffffffffffffffffffffff1614610b59576040517f08c379a0000000000000000000000000000000000000000000000000000000008152600401610b509061306c565b60405180910390fd5b6103e881600954610b6a91906130bb565b10610baa576040517f08c379a0000000000000000000000000000000000000000000000000000000008152600401610ba19061315d565b60405180910390fd5b600860009054906101000a900460ff1680610bd15750600660149054906101000a900460ff165b610c10576040517f08c379a0000000000000000000000000000000000000000000000000000000008152600401610c07906131c9565b60405180910390fd5b60005b81811015610c4557610c323382600954610c2d91906130bb565b611cea565b8080610c3d906131e9565b915050610c13565b5080600954610c5491906130bb565b60098190555050565b6000620f4240905090565b610c83838383604051806020016040528060008152506112e6565b505050565b600381565b600860009054906101000a900460ff1681565b6000806002600084815260200190815260200160002060009054906101000a900473ffffffffffffffffffffffffffffffffffffffff169050600073ffffffffffffffffffffffffffffffffffffffff168173ffffffffffffffffffffffffffffffffffffffff161415610d49576040517f08c379a0000000000000000000000000000000000000000000000000000000008152600401610d409061327e565b60405180910390fd5b80915050919050565b60006001600954610d63919061329e565b905090565b60008073ffffffffffffffffffffffffffffffffffffffff168273ffffffffffffffffffffffffffffffffffffffff161415610dd9576040517f08c379a0000000000000000000000000000000000000000000000000000000008152600401610dd090613344565b60405180910390fd5b600360008373ffffffffffffffffffffffffffffffffffffffff1673ffffffffffffffffffffffffffffffffffffffff168152602001908152602001600020549050919050565b600660009054906101000a900473ffffffffffffffffffffffffffffffffffffffff1673ffffffffffffffffffffffffffffffffffffffff163373ffffffffffffffffffffffffffffffffffffffff1614610eb0576040517f08c379a0000000000000000000000000000000000000000000000000000000008152600401610ea79061306c565b60405180910390fd5b80600660146101000a81548160ff02191690831515021790555050565b600660009054906101000a900473ffffffffffffffffffffffffffffffffffffffff1673ffffffffffffffffffffffffffffffffffffffff163373ffffffffffffffffffffffffffffffffffffffff1614610f5d576040517f08c379a0000000000000000000000000000000000000000000000000000000008152600401610f549061306c565b60405180910390fd5b60005b83839050811015610ffd578160076000868685818110610f8357610f82613364565b5b9050602002016020810190610f9891906128fe565b73ffffffffffffffffffffffffffffffffffffffff1673ffffffffffffffffffffffffffffffffffffffff16815260200190815260200160002060006101000a81548160ff021916908360ff1602179055508080610ff5906131e9565b915050610f60565b50505050565b60606001805461101290612e38565b80601f016020809104026020016040519081016040528092919081815260200182805461103e90612e38565b801561108b5780601f106110605761010080835404028352916020019161108b565b820191906000526020600020905b81548152906001019060200180831161106e57829003601f168201915b5050505050905090565b60006103e88260ff166009546110ab91906130bb565b106110eb576040517f08c379a00000000000000000000000000000000000000000000000000000000081526004016110e29061315d565b60405180910390fd5b600860009054906101000a900460ff16806111125750600660149054906101000a900460ff165b611151576040517f08c379a0000000000000000000000000000000000000000000000000000000008152600401611148906131c9565b60405180910390fd5b600161115c33610d68565b106111ca57600360ff168260ff1611156111ab576040517f08c379a00000000000000000000000000000000000000000000000000000000081526004016111a2906133df565b60405180910390fd5b8160ff16620f42406111bd91906133ff565b3410156111c957600080fd5b5b60006111d533610d68565b1480156111ea575060016111e833610d68565b115b1561127057600160036111fd9190613459565b60ff168260ff161115611245576040517f08c379a000000000000000000000000000000000000000000000000000000000815260040161123c906133df565b60405180910390fd5b6001826112529190613490565b60ff16620f424061126391906133ff565b34101561126f57600080fd5b5b60005b8260ff168160ff1610156112ae5761129b338260ff1660095461129691906130bb565b611cea565b80806112a6906134c4565b915050611273565b508160ff166009546112c091906130bb565b6009819055506009549050919050565b6112e26112db61192d565b8383611d08565b5050565b6112f76112f161192d565b836119ee565b611336576040517f08c379a000000000000000000000000000000000000000000000000000000000815260040161132d90613000565b60405180910390fd5b61134284848484611e75565b50505050565b600660009054906101000a900473ffffffffffffffffffffffffffffffffffffffff1673ffffffffffffffffffffffffffffffffffffffff163373ffffffffffffffffffffffffffffffffffffffff16146113d8576040517f08c379a00000000000000000000000000000000000000000000000000000000081526004016113cf9061306c565b60405180910390fd5b80600860006101000a81548160ff02191690831515021790555050565b60606113ff610d52565b821115611441576040517f08c379a00000000000000000000000000000000000000000000000000000000081526004016114389061353a565b60405180910390fd5b600061144b611ed1565b9050600a60009054906101000a900460ff1615611494578061146c84611f63565b60405160200161147d9291906135e2565b6040516020818303038152906040529150506114b8565b806040516020016114a59190613611565b6040516020818303038152906040529150505b919050565b600660009054906101000a900473ffffffffffffffffffffffffffffffffffffffff1673ffffffffffffffffffffffffffffffffffffffff163373ffffffffffffffffffffffffffffffffffffffff161461154d576040517f08c379a00000000000000000000000000000000000000000000000000000000081526004016115449061306c565b60405180910390fd5b81600a60006101000a81548160ff02191690831515021790555080600b908051906020019061157d929190612529565b505050565b600660149054906101000a900460ff166115d1576040517f08c379a00000000000000000000000000000000000000000000000000000000081526004016115c890613674565b60405180910390fd5b600760003373ffffffffffffffffffffffffffffffffffffffff1673ffffffffffffffffffffffffffffffffffffffff16815260200190815260200160002060009054906101000a900460ff1660ff168160ff161115611666576040517f08c379a000000000000000000000000000000000000000000000000000000000815260040161165d906136e0565b60405180910390fd5b61166f81611095565b5080600760003373ffffffffffffffffffffffffffffffffffffffff1673ffffffffffffffffffffffffffffffffffffffff16815260200190815260200160002060008282829054906101000a900460ff166116cb9190613490565b92506101000a81548160ff021916908360ff16021790555050565b60006009546103e86116f8919061329e565b905090565b6000600560008473ffffffffffffffffffffffffffffffffffffffff1673ffffffffffffffffffffffffffffffffffffffff16815260200190815260200160002060008373ffffffffffffffffffffffffffffffffffffffff1673ffffffffffffffffffffffffffffffffffffffff16815260200190815260200160002060009054906101000a900460ff16905092915050565b600a60009054906101000a900460ff1681565b600660009054906101000a900473ffffffffffffffffffffffffffffffffffffffff1673ffffffffffffffffffffffffffffffffffffffff163373ffffffffffffffffffffffffffffffffffffffff1614611834576040517f08c379a000000000000000000000000000000000000000000000000000000000815260040161182b9061306c565b60405180910390fd5b6000600660006101000a81548173ffffffffffffffffffffffffffffffffffffffff021916908373ffffffffffffffffffffffffffffffffffffffff160217905550565b60007f01ffc9a7000000000000000000000000000000000000000000000000000000007bffffffffffffffffffffffffffffffffffffffffffffffffffffffff1916827bffffffffffffffffffffffffffffffffffffffffffffffffffffffff1916149050919050565b6118eb816120c4565b61192a576040517f08c379a00000000000000000000000000000000000000000000000000000000081526004016119219061327e565b60405180910390fd5b50565b600033905090565b816004600083815260200190815260200160002060006101000a81548173ffffffffffffffffffffffffffffffffffffffff021916908373ffffffffffffffffffffffffffffffffffffffff160217905550808273ffffffffffffffffffffffffffffffffffffffff166119a883610ca0565b73ffffffffffffffffffffffffffffffffffffffff167f8c5be1e5ebec7d5bd14f71427d1e84f3dd0314c0f7b2291e5b200ac8c7c3b92560405160405180910390a45050565b6000806119fa83610ca0565b90508073ffffffffffffffffffffffffffffffffffffffff168473ffffffffffffffffffffffffffffffffffffffff161480611a3c5750611a3b81856116fd565b5b80611a7a57508373ffffffffffffffffffffffffffffffffffffffff16611a628461089c565b73ffffffffffffffffffffffffffffffffffffffff16145b91505092915050565b8273ffffffffffffffffffffffffffffffffffffffff16611aa382610ca0565b73ffffffffffffffffffffffffffffffffffffffff1614611af9576040517f08c379a0000000000000000000000000000000000000000000000000000000008152600401611af090613772565b60405180910390fd5b600073ffffffffffffffffffffffffffffffffffffffff168273ffffffffffffffffffffffffffffffffffffffff161415611b69576040517f08c379a0000000000000000000000000000000000000000000000000000000008152600401611b6090613804565b60405180910390fd5b611b74838383612130565b611b7f600082611935565b6001600360008573ffffffffffffffffffffffffffffffffffffffff1673ffffffffffffffffffffffffffffffffffffffff1681526020019081526020016000206000828254611bcf919061329e565b925050819055506001600360008473ffffffffffffffffffffffffffffffffffffffff1673ffffffffffffffffffffffffffffffffffffffff1681526020019081526020016000206000828254611c2691906130bb565b92505081905550816002600083815260200190815260200160002060006101000a81548173ffffffffffffffffffffffffffffffffffffffff021916908373ffffffffffffffffffffffffffffffffffffffff160217905550808273ffffffffffffffffffffffffffffffffffffffff168473ffffffffffffffffffffffffffffffffffffffff167fddf252ad1be2c89b69c2b068fc378daa952ba7f163c4a11628f55a4df523b3ef60405160405180910390a4611ce5838383612135565b505050565b611d0482826040518060200160405280600081525061213a565b5050565b8173ffffffffffffffffffffffffffffffffffffffff168373ffffffffffffffffffffffffffffffffffffffff161415611d77576040517f08c379a0000000000000000000000000000000000000000000000000000000008152600401611d6e90613870565b60405180910390fd5b80600560008573ffffffffffffffffffffffffffffffffffffffff1673ffffffffffffffffffffffffffffffffffffffff16815260200190815260200160002060008473ffffffffffffffffffffffffffffffffffffffff1673ffffffffffffffffffffffffffffffffffffffff16815260200190815260200160002060006101000a81548160ff0219169083151502179055508173ffffffffffffffffffffffffffffffffffffffff168373ffffffffffffffffffffffffffffffffffffffff167f17307eab39ab6107e8899845ad3d59bd9653f200f220920489ca2b5937696c3183604051611e689190612680565b60405180910390a3505050565b611e80848484611a83565b611e8c84848484612195565b611ecb576040517f08c379a0000000000000000000000000000000000000000000000000000000008152600401611ec290613902565b60405180910390fd5b50505050565b6060600b8054611ee090612e38565b80601f0160208091040260200160405190810160405280929190818152602001828054611f0c90612e38565b8015611f595780601f10611f2e57610100808354040283529160200191611f59565b820191906000526020600020905b815481529060010190602001808311611f3c57829003601f168201915b5050505050905090565b60606000821415611fab576040518060400160405280600181526020017f300000000000000000000000000000000000000000000000000000000000000081525090506120bf565b600082905060005b60008214611fdd578080611fc6906131e9565b915050600a82611fd69190613951565b9150611fb3565b60008167ffffffffffffffff811115611ff957611ff8612b1e565b5b6040519080825280601f01601f19166020018201604052801561202b5781602001600182028036833780820191505090505b5090505b600085146120b857600182612044919061329e565b9150600a856120539190613982565b603061205f91906130bb565b60f81b81838151811061207557612074613364565b5b60200101907effffffffffffffffffffffffffffffffffffffffffffffffffffffffffffff1916908160001a905350600a856120b19190613951565b945061202f565b8093505050505b919050565b60008073ffffffffffffffffffffffffffffffffffffffff166002600084815260200190815260200160002060009054906101000a900473ffffffffffffffffffffffffffffffffffffffff1673ffffffffffffffffffffffffffffffffffffffff1614159050919050565b505050565b505050565b612144838361232c565b6121516000848484612195565b612190576040517f08c379a000000000000000000000000000000000000000000000000000000000815260040161218790613902565b60405180910390fd5b505050565b60006121b68473ffffffffffffffffffffffffffffffffffffffff16612506565b1561231f578373ffffffffffffffffffffffffffffffffffffffff1663150b7a026121df61192d565b8786866040518563ffffffff1660e01b81526004016122019493929190613a08565b602060405180830381600087803b15801561221b57600080fd5b505af192505050801561224c57506040513d601f19601f820116820180604052508101906122499190613a69565b60015b6122cf573d806000811461227c576040519150601f19603f3d011682016040523d82523d6000602084013e612281565b606091505b506000815114156122c7576040517f08c379a00000000000000000000000000000000000000000000000000000000081526004016122be90613902565b60405180910390fd5b805181602001fd5b63150b7a0260e01b7bffffffffffffffffffffffffffffffffffffffffffffffffffffffff1916817bffffffffffffffffffffffffffffffffffffffffffffffffffffffff191614915050612324565b600190505b949350505050565b600073ffffffffffffffffffffffffffffffffffffffff168273ffffffffffffffffffffffffffffffffffffffff16141561239c576040517f08c379a000000000000000000000000000000000000000000000000000000000815260040161239390613ae2565b60405180910390fd5b6123a5816120c4565b156123e5576040517f08c379a00000000000000000000000000000000000000000000000000000000081526004016123dc90613b4e565b60405180910390fd5b6123f160008383612130565b6001600360008473ffffffffffffffffffffffffffffffffffffffff1673ffffffffffffffffffffffffffffffffffffffff168152602001908152602001600020600082825461244191906130bb565b92505081905550816002600083815260200190815260200160002060006101000a81548173ffffffffffffffffffffffffffffffffffffffff021916908373ffffffffffffffffffffffffffffffffffffffff160217905550808273ffffffffffffffffffffffffffffffffffffffff16600073ffffffffffffffffffffffffffffffffffffffff167fddf252ad1be2c89b69c2b068fc378daa952ba7f163c4a11628f55a4df523b3ef60405160405180910390a461250260008383612135565b5050565b6000808273ffffffffffffffffffffffffffffffffffffffff163b119050919050565b82805461253590612e38565b90600052602060002090601f016020900481019282612557576000855561259e565b82601f1061257057805160ff191683800117855561259e565b8280016001018555821561259e579182015b8281111561259d578251825591602001919060010190612582565b5b5090506125ab91906125af565b5090565b5b808211156125c85760008160009055506001016125b0565b5090565b6000604051905090565b600080fd5b600080fd5b60007fffffffff0000000000000000000000000000000000000000000000000000000082169050919050565b612615816125e0565b811461262057600080fd5b50565b6000813590506126328161260c565b92915050565b60006020828403121561264e5761264d6125d6565b5b600061265c84828501612623565b91505092915050565b60008115159050919050565b61267a81612665565b82525050565b60006020820190506126956000830184612671565b92915050565b600081519050919050565b600082825260208201905092915050565b60005b838110156126d55780820151818401526020810190506126ba565b838111156126e4576000848401525b50505050565b6000601f19601f8301169050919050565b60006127068261269b565b61271081856126a6565b93506127208185602086016126b7565b612729816126ea565b840191505092915050565b6000602082019050818103600083015261274e81846126fb565b905092915050565b6000819050919050565b61276981612756565b811461277457600080fd5b50565b60008135905061278681612760565b92915050565b6000602082840312156127a2576127a16125d6565b5b60006127b084828501612777565b91505092915050565b600073ffffffffffffffffffffffffffffffffffffffff82169050919050565b60006127e4826127b9565b9050919050565b6127f4816127d9565b82525050565b600060208201905061280f60008301846127eb565b92915050565b61281e816127d9565b811461282957600080fd5b50565b60008135905061283b81612815565b92915050565b60008060408385031215612858576128576125d6565b5b60006128668582860161282c565b925050602061287785828601612777565b9150509250929050565b61288a81612756565b82525050565b60006020820190506128a56000830184612881565b92915050565b6000806000606084860312156128c4576128c36125d6565b5b60006128d28682870161282c565b93505060206128e38682870161282c565b92505060406128f486828701612777565b9150509250925092565b600060208284031215612914576129136125d6565b5b60006129228482850161282c565b91505092915050565b600060ff82169050919050565b6129418161292b565b82525050565b600060208201905061295c6000830184612938565b92915050565b61296b81612665565b811461297657600080fd5b50565b60008135905061298881612962565b92915050565b6000602082840312156129a4576129a36125d6565b5b60006129b284828501612979565b91505092915050565b600080fd5b600080fd5b600080fd5b60008083601f8401126129e0576129df6129bb565b5b8235905067ffffffffffffffff8111156129fd576129fc6129c0565b5b602083019150836020820283011115612a1957612a186129c5565b5b9250929050565b612a298161292b565b8114612a3457600080fd5b50565b600081359050612a4681612a20565b92915050565b600080600060408486031215612a6557612a646125d6565b5b600084013567ffffffffffffffff811115612a8357612a826125db565b5b612a8f868287016129ca565b93509350506020612aa286828701612a37565b9150509250925092565b600060208284031215612ac257612ac16125d6565b5b6000612ad084828501612a37565b91505092915050565b60008060408385031215612af057612aef6125d6565b5b6000612afe8582860161282c565b9250506020612b0f85828601612979565b9150509250929050565b600080fd5b7f4e487b7100000000000000000000000000000000000000000000000000000000600052604160045260246000fd5b612b56826126ea565b810181811067ffffffffffffffff82111715612b7557612b74612b1e565b5b80604052505050565b6000612b886125cc565b9050612b948282612b4d565b919050565b600067ffffffffffffffff821115612bb457612bb3612b1e565b5b612bbd826126ea565b9050602081019050919050565b82818337600083830152505050565b6000612bec612be784612b99565b612b7e565b905082815260208101848484011115612c0857612c07612b19565b5b612c13848285612bca565b509392505050565b600082601f830112612c3057612c2f6129bb565b5b8135612c40848260208601612bd9565b91505092915050565b60008060008060808587031215612c6357612c626125d6565b5b6000612c718782880161282c565b9450506020612c828782880161282c565b9350506040612c9387828801612777565b925050606085013567ffffffffffffffff811115612cb457612cb36125db565b5b612cc087828801612c1b565b91505092959194509250565b600067ffffffffffffffff821115612ce757612ce6612b1e565b5b612cf0826126ea565b9050602081019050919050565b6000612d10612d0b84612ccc565b612b7e565b905082815260208101848484011115612d2c57612d2b612b19565b5b612d37848285612bca565b509392505050565b600082601f830112612d5457612d536129bb565b5b8135612d64848260208601612cfd565b91505092915050565b60008060408385031215612d8457612d836125d6565b5b6000612d9285828601612979565b925050602083013567ffffffffffffffff811115612db357612db26125db565b5b612dbf85828601612d3f565b9150509250929050565b60008060408385031215612de057612ddf6125d6565b5b6000612dee8582860161282c565b9250506020612dff8582860161282c565b9150509250929050565b7f4e487b7100000000000000000000000000000000000000000000000000000000600052602260045260246000fd5b60006002820490506001821680612e5057607f821691505b60208210811415612e6457612e63612e09565b5b50919050565b7f4552433732313a20617070726f76616c20746f2063757272656e74206f776e6560008201527f7200000000000000000000000000000000000000000000000000000000000000602082015250565b6000612ec66021836126a6565b9150612ed182612e6a565b604082019050919050565b60006020820190508181036000830152612ef581612eb9565b9050919050565b7f4552433732313a20617070726f76652063616c6c6572206973206e6f7420746f60008201527f6b656e206f776e6572206e6f7220617070726f76656420666f7220616c6c0000602082015250565b6000612f58603e836126a6565b9150612f6382612efc565b604082019050919050565b60006020820190508181036000830152612f8781612f4b565b9050919050565b7f4552433732313a2063616c6c6572206973206e6f7420746f6b656e206f776e6560008201527f72206e6f7220617070726f766564000000000000000000000000000000000000602082015250565b6000612fea602e836126a6565b9150612ff582612f8e565b604082019050919050565b6000602082019050818103600083015261301981612fdd565b9050919050565b7f4f6e6c79206465706c6f79657200000000000000000000000000000000000000600082015250565b6000613056600d836126a6565b915061306182613020565b602082019050919050565b6000602082019050818103600083015261308581613049565b9050919050565b7f4e487b7100000000000000000000000000000000000000000000000000000000600052601160045260246000fd5b60006130c682612756565b91506130d183612756565b9250827fffffffffffffffffffffffffffffffffffffffffffffffffffffffffffffffff038211156131065761310561308c565b5b828201905092915050565b7f5469636b65742073616c65206c696d6974207265616368656400000000000000600082015250565b60006131476019836126a6565b915061315282613111565b602082019050919050565b600060208201905081810360008301526131768161313a565b9050919050565b7f5469636b65747320617265206e6f7420616c6c6f77656420746f2073616c6500600082015250565b60006131b3601f836126a6565b91506131be8261317d565b602082019050919050565b600060208201905081810360008301526131e2816131a6565b9050919050565b60006131f482612756565b91507fffffffffffffffffffffffffffffffffffffffffffffffffffffffffffffffff8214156132275761322661308c565b5b600182019050919050565b7f4552433732313a20696e76616c696420746f6b656e2049440000000000000000600082015250565b60006132686018836126a6565b915061327382613232565b602082019050919050565b600060208201905081810360008301526132978161325b565b9050919050565b60006132a982612756565b91506132b483612756565b9250828210156132c7576132c661308c565b5b828203905092915050565b7f4552433732313a2061646472657373207a65726f206973206e6f74206120766160008201527f6c6964206f776e65720000000000000000000000000000000000000000000000602082015250565b600061332e6029836126a6565b9150613339826132d2565b604082019050919050565b6000602082019050818103600083015261335d81613321565b9050919050565b7f4e487b7100000000000000000000000000000000000000000000000000000000600052603260045260246000fd5b7f4578636565646564206d6178207469636b657473207075726368617365000000600082015250565b60006133c9601d836126a6565b91506133d482613393565b602082019050919050565b600060208201905081810360008301526133f8816133bc565b9050919050565b600061340a82612756565b915061341583612756565b9250817fffffffffffffffffffffffffffffffffffffffffffffffffffffffffffffffff048311821515161561344e5761344d61308c565b5b828202905092915050565b60006134648261292b565b915061346f8361292b565b92508260ff038211156134855761348461308c565b5b828201905092915050565b600061349b8261292b565b91506134a68361292b565b9250828210156134b9576134b861308c565b5b828203905092915050565b60006134cf8261292b565b915060ff8214156134e3576134e261308c565b5b600182019050919050565b7f756e6d696e746564207469636b65744944000000000000000000000000000000600082015250565b60006135246011836126a6565b915061352f826134ee565b602082019050919050565b6000602082019050818103600083015261355381613517565b9050919050565b600081905092915050565b60006135708261269b565b61357a818561355a565b935061358a8185602086016126b7565b80840191505092915050565b7f2e6a736f6e000000000000000000000000000000000000000000000000000000600082015250565b60006135cc60058361355a565b91506135d782613596565b600582019050919050565b60006135ee8285613565565b91506135fa8284613565565b9150613605826135bf565b91508190509392505050565b600061361d8284613565565b915081905092915050565b7f416c6c6f77206c697374206973206e6f74206163746976650000000000000000600082015250565b600061365e6018836126a6565b915061366982613628565b602082019050919050565b6000602082019050818103600083015261368d81613651565b9050919050565b7f457863656564206d617820617661696c61626c6520746f207075726368617365600082015250565b60006136ca6020836126a6565b91506136d582613694565b602082019050919050565b600060208201905081810360008301526136f9816136bd565b9050919050565b7f4552433732313a207472616e736665722066726f6d20696e636f72726563742060008201527f6f776e6572000000000000000000000000000000000000000000000000000000602082015250565b600061375c6025836126a6565b915061376782613700565b604082019050919050565b6000602082019050818103600083015261378b8161374f565b9050919050565b7f4552433732313a207472616e7366657220746f20746865207a65726f2061646460008201527f7265737300000000000000000000000000000000000000000000000000000000602082015250565b60006137ee6024836126a6565b91506137f982613792565b604082019050919050565b6000602082019050818103600083015261381d816137e1565b9050919050565b7f4552433732313a20617070726f766520746f2063616c6c657200000000000000600082015250565b600061385a6019836126a6565b915061386582613824565b602082019050919050565b600060208201905081810360008301526138898161384d565b9050919050565b7f4552433732313a207472616e7366657220746f206e6f6e20455243373231526560008201527f63656976657220696d706c656d656e7465720000000000000000000000000000602082015250565b60006138ec6032836126a6565b91506138f782613890565b604082019050919050565b6000602082019050818103600083015261391b816138df565b9050919050565b7f4e487b7100000000000000000000000000000000000000000000000000000000600052601260045260246000fd5b600061395c82612756565b915061396783612756565b92508261397757613976613922565b5b828204905092915050565b600061398d82612756565b915061399883612756565b9250826139a8576139a7613922565b5b828206905092915050565b600081519050919050565b600082825260208201905092915050565b60006139da826139b3565b6139e481856139be565b93506139f48185602086016126b7565b6139fd816126ea565b840191505092915050565b6000608082019050613a1d60008301876127eb565b613a2a60208301866127eb565b613a376040830185612881565b8181036060830152613a4981846139cf565b905095945050505050565b600081519050613a638161260c565b92915050565b600060208284031215613a7f57613a7e6125d6565b5b6000613a8d84828501613a54565b91505092915050565b7f4552433732313a206d696e7420746f20746865207a65726f2061646472657373600082015250565b6000613acc6020836126a6565b9150613ad782613a96565b602082019050919050565b60006020820190508181036000830152613afb81613abf565b9050919050565b7f4552433732313a20746f6b656e20616c7265616479206d696e74656400000000600082015250565b6000613b38601c836126a6565b9150613b4382613b02565b602082019050919050565b60006020820190508181036000830152613b6781613b2b565b905091905056fea264697066735822122024eb1d53bdf91b5227f59a8ff1ae313e2b63a22ac86ba30e666183286b2fbc2964736f6c6343000808003368747470733a2f2f697066732e696f2f697066732f516d54757053586965796a59395363397a4366347637676d4148746e43575872667972743858717a57724a6856452f",
  "devdoc": {
    "kind": "dev",
    "methods": {
      "approve(address,uint256)": {
        "details": "See {IERC721-approve}."
      },
      "balanceOf(address)": {
        "details": "See {IERC721-balanceOf}."
      },
      "devMint(uint256)": {
        "details": "deployer can mint specific ammount of nft token without paying ps. or use mintAllowList directally"
      },
      "dropDeployer()": {
        "details": "transfer the ownership of the contract to null address"
      },
      "getApproved(uint256)": {
        "details": "See {IERC721-getApproved}."
      },
      "isApprovedForAll(address,address)": {
        "details": "See {IERC721-isApprovedForAll}."
      },
      "mintTicket(uint8)": {
        "details": "free mint successfully for the first time minter however, once one own the nft, should pay to mint more (free mint, >1 mint cost). ps: if wanna random mint can use chainlink"
      },
      "name()": {
        "details": "See {IERC721Metadata-name}."
      },
      "ownerOf(uint256)": {
        "details": "See {IERC721-ownerOf}."
      },
      "safeTransferFrom(address,address,uint256)": {
        "details": "See {IERC721-safeTransferFrom}."
      },
      "safeTransferFrom(address,address,uint256,bytes)": {
        "details": "See {IERC721-safeTransferFrom}."
      },
      "setApprovalForAll(address,bool)": {
        "details": "See {IERC721-setApprovalForAll}."
      },
      "supportsInterface(bytes4)": {
        "details": "See {IERC165-supportsInterface}."
      },
      "symbol()": {
        "details": "See {IERC721Metadata-symbol}."
      },
      "tokenURI(uint256)": {
        "details": "See {IERC721Metadata-tokenURI}."
      },
      "transferFrom(address,address,uint256)": {
        "details": "See {IERC721-transferFrom}."
      }
    },
    "version": 1
  },
  "userdoc": {
    "kind": "user",
    "methods": {},
    "version": 1
  },
  "storageLayout": {
    "storage": [
      {
        "astId": 25,
        "contract": "contracts/travelNFT_mint.sol:travelNFT_mint",
        "label": "_name",
        "offset": 0,
        "slot": "0",
        "type": "t_string_storage"
      },
      {
        "astId": 27,
        "contract": "contracts/travelNFT_mint.sol:travelNFT_mint",
        "label": "_symbol",
        "offset": 0,
        "slot": "1",
        "type": "t_string_storage"
      },
      {
        "astId": 31,
        "contract": "contracts/travelNFT_mint.sol:travelNFT_mint",
        "label": "_owners",
        "offset": 0,
        "slot": "2",
        "type": "t_mapping(t_uint256,t_address)"
      },
      {
        "astId": 35,
        "contract": "contracts/travelNFT_mint.sol:travelNFT_mint",
        "label": "_balances",
        "offset": 0,
        "slot": "3",
        "type": "t_mapping(t_address,t_uint256)"
      },
      {
        "astId": 39,
        "contract": "contracts/travelNFT_mint.sol:travelNFT_mint",
        "label": "_tokenApprovals",
        "offset": 0,
        "slot": "4",
        "type": "t_mapping(t_uint256,t_address)"
      },
      {
        "astId": 45,
        "contract": "contracts/travelNFT_mint.sol:travelNFT_mint",
        "label": "_operatorApprovals",
        "offset": 0,
        "slot": "5",
        "type": "t_mapping(t_address,t_mapping(t_address,t_bool))"
      },
      {
        "astId": 1616,
        "contract": "contracts/travelNFT_mint.sol:travelNFT_mint",
        "label": "deployer",
        "offset": 0,
        "slot": "6",
        "type": "t_address_payable"
      },
      {
        "astId": 1618,
        "contract": "contracts/travelNFT_mint.sol:travelNFT_mint",
        "label": "isAllowListActive",
        "offset": 20,
        "slot": "6",
        "type": "t_bool"
      },
      {
        "astId": 1622,
        "contract": "contracts/travelNFT_mint.sol:travelNFT_mint",
        "label": "allowList",
        "offset": 0,
        "slot": "7",
        "type": "t_mapping(t_address,t_uint8)"
      },
      {
        "astId": 1624,
        "contract": "contracts/travelNFT_mint.sol:travelNFT_mint",
        "label": "isSaleActive",
        "offset": 0,
        "slot": "8",
        "type": "t_bool"
      },
      {
        "astId": 1626,
        "contract": "contracts/travelNFT_mint.sol:travelNFT_mint",
        "label": "s_saledConuter",
        "offset": 0,
        "slot": "9",
        "type": "t_uint256"
      },
      {
        "astId": 1637,
        "contract": "contracts/travelNFT_mint.sol:travelNFT_mint",
        "label": "isBlindboxOpen",
        "offset": 0,
        "slot": "10",
        "type": "t_bool"
      },
      {
        "astId": 1640,
        "contract": "contracts/travelNFT_mint.sol:travelNFT_mint",
        "label": "ticketURI",
        "offset": 0,
        "slot": "11",
        "type": "t_string_storage"
      }
    ],
    "types": {
      "t_address": {
        "encoding": "inplace",
        "label": "address",
        "numberOfBytes": "20"
      },
      "t_address_payable": {
        "encoding": "inplace",
        "label": "address payable",
        "numberOfBytes": "20"
      },
      "t_bool": {
        "encoding": "inplace",
        "label": "bool",
        "numberOfBytes": "1"
      },
      "t_mapping(t_address,t_bool)": {
        "encoding": "mapping",
        "key": "t_address",
        "label": "mapping(address => bool)",
        "numberOfBytes": "32",
        "value": "t_bool"
      },
      "t_mapping(t_address,t_mapping(t_address,t_bool))": {
        "encoding": "mapping",
        "key": "t_address",
        "label": "mapping(address => mapping(address => bool))",
        "numberOfBytes": "32",
        "value": "t_mapping(t_address,t_bool)"
      },
      "t_mapping(t_address,t_uint256)": {
        "encoding": "mapping",
        "key": "t_address",
        "label": "mapping(address => uint256)",
        "numberOfBytes": "32",
        "value": "t_uint256"
      },
      "t_mapping(t_address,t_uint8)": {
        "encoding": "mapping",
        "key": "t_address",
        "label": "mapping(address => uint8)",
        "numberOfBytes": "32",
        "value": "t_uint8"
      },
      "t_mapping(t_uint256,t_address)": {
        "encoding": "mapping",
        "key": "t_uint256",
        "label": "mapping(uint256 => address)",
        "numberOfBytes": "32",
        "value": "t_address"
      },
      "t_string_storage": {
        "encoding": "bytes",
        "label": "string",
        "numberOfBytes": "32"
      },
      "t_uint256": {
        "encoding": "inplace",
        "label": "uint256",
        "numberOfBytes": "32"
      },
      "t_uint8": {
        "encoding": "inplace",
        "label": "uint8",
        "numberOfBytes": "1"
      }
    }
  }
}