{
  "address": "0xF126616B787b0c5A851b68f8cbC6CE7af2c7efE2",
  "abi": [
    {
      "inputs": [],
      "stateMutability": "nonpayable",
      "type": "constructor"
    },
    {
      "anonymous": false,
      "inputs": [
        {
          "indexed": true,
          "internalType": "address",
          "name": "owner",
          "type": "address"
        },
        {
          "indexed": true,
          "internalType": "address",
          "name": "approved",
          "type": "address"
        },
        {
          "indexed": true,
          "internalType": "uint256",
          "name": "tokenId",
          "type": "uint256"
        }
      ],
      "name": "Approval",
      "type": "event"
    },
    {
      "anonymous": false,
      "inputs": [
        {
          "indexed": true,
          "internalType": "address",
          "name": "owner",
          "type": "address"
        },
        {
          "indexed": true,
          "internalType": "address",
          "name": "operator",
          "type": "address"
        },
        {
          "indexed": false,
          "internalType": "bool",
          "name": "approved",
          "type": "bool"
        }
      ],
      "name": "ApprovalForAll",
      "type": "event"
    },
    {
      "anonymous": false,
      "inputs": [
        {
          "indexed": true,
          "internalType": "address",
          "name": "from",
          "type": "address"
        },
        {
          "indexed": true,
          "internalType": "address",
          "name": "to",
          "type": "address"
        },
        {
          "indexed": true,
          "internalType": "uint256",
          "name": "tokenId",
          "type": "uint256"
        }
      ],
      "name": "Transfer",
      "type": "event"
    },
    {
      "inputs": [],
      "name": "PUCHASE_LIMIT",
      "outputs": [
        {
          "internalType": "uint8",
          "name": "",
          "type": "uint8"
        }
      ],
      "stateMutability": "view",
      "type": "function"
    },
    {
      "inputs": [],
      "name": "SALE_LIMIT",
      "outputs": [
        {
          "internalType": "uint256",
          "name": "",
          "type": "uint256"
        }
      ],
      "stateMutability": "view",
      "type": "function"
    },
    {
      "inputs": [
        {
          "internalType": "address",
          "name": "to",
          "type": "address"
        },
        {
          "internalType": "uint256",
          "name": "tokenId",
          "type": "uint256"
        }
      ],
      "name": "approve",
      "outputs": [],
      "stateMutability": "nonpayable",
      "type": "function"
    },
    {
      "inputs": [
        {
          "internalType": "address",
          "name": "owner",
          "type": "address"
        }
      ],
      "name": "balanceOf",
      "outputs": [
        {
          "internalType": "uint256",
          "name": "",
          "type": "uint256"
        }
      ],
      "stateMutability": "view",
      "type": "function"
    },
    {
      "inputs": [],
      "name": "blindBoxOpen",
      "outputs": [
        {
          "internalType": "bool",
          "name": "",
          "type": "bool"
        }
      ],
      "stateMutability": "view",
      "type": "function"
    },
    {
      "inputs": [
        {
          "internalType": "uint256",
          "name": "numOfTokens",
          "type": "uint256"
        }
      ],
      "name": "devMint",
      "outputs": [],
      "stateMutability": "nonpayable",
      "type": "function"
    },
    {
      "inputs": [],
      "name": "dropDeployer",
      "outputs": [],
      "stateMutability": "nonpayable",
      "type": "function"
    },
    {
      "inputs": [
        {
          "internalType": "uint256",
          "name": "tokenId",
          "type": "uint256"
        }
      ],
      "name": "getApproved",
      "outputs": [
        {
          "internalType": "address",
          "name": "",
          "type": "address"
        }
      ],
      "stateMutability": "view",
      "type": "function"
    },
    {
      "inputs": [],
      "name": "getMintRemaining",
      "outputs": [
        {
          "internalType": "uint256",
          "name": "",
          "type": "uint256"
        }
      ],
      "stateMutability": "view",
      "type": "function"
    },
    {
      "inputs": [
        {
          "internalType": "address",
          "name": "_addr",
          "type": "address"
        }
      ],
      "name": "getNumAvailableToMint",
      "outputs": [
        {
          "internalType": "uint8",
          "name": "",
          "type": "uint8"
        }
      ],
      "stateMutability": "view",
      "type": "function"
    },
    {
      "inputs": [],
      "name": "getTicketCost",
      "outputs": [
        {
          "internalType": "uint256",
          "name": "",
          "type": "uint256"
        }
      ],
      "stateMutability": "pure",
      "type": "function"
    },
    {
      "inputs": [],
      "name": "getTokenCounter",
      "outputs": [
        {
          "internalType": "uint256",
          "name": "",
          "type": "uint256"
        }
      ],
      "stateMutability": "view",
      "type": "function"
    },
    {
      "inputs": [],
      "name": "isAllowListActive",
      "outputs": [
        {
          "internalType": "bool",
          "name": "",
          "type": "bool"
        }
      ],
      "stateMutability": "view",
      "type": "function"
    },
    {
      "inputs": [
        {
          "internalType": "address",
          "name": "owner",
          "type": "address"
        },
        {
          "internalType": "address",
          "name": "operator",
          "type": "address"
        }
      ],
      "name": "isApprovedForAll",
      "outputs": [
        {
          "internalType": "bool",
          "name": "",
          "type": "bool"
        }
      ],
      "stateMutability": "view",
      "type": "function"
    },
    {
      "inputs": [
        {
          "internalType": "uint8",
          "name": "numOfTokens",
          "type": "uint8"
        }
      ],
      "name": "mintAllowList",
      "outputs": [],
      "stateMutability": "payable",
      "type": "function"
    },
    {
      "inputs": [
        {
          "internalType": "uint8",
          "name": "numOfTokens",
          "type": "uint8"
        }
      ],
      "name": "mintTicket",
      "outputs": [
        {
          "internalType": "uint256",
          "name": "",
          "type": "uint256"
        }
      ],
      "stateMutability": "payable",
      "type": "function"
    },
    {
      "inputs": [],
      "name": "name",
      "outputs": [
        {
          "internalType": "string",
          "name": "",
          "type": "string"
        }
      ],
      "stateMutability": "view",
      "type": "function"
    },
    {
      "inputs": [
        {
          "internalType": "uint256",
          "name": "tokenId",
          "type": "uint256"
        }
      ],
      "name": "ownerOf",
      "outputs": [
        {
          "internalType": "address",
          "name": "",
          "type": "address"
        }
      ],
      "stateMutability": "view",
      "type": "function"
    },
    {
      "inputs": [
        {
          "internalType": "address",
          "name": "from",
          "type": "address"
        },
        {
          "internalType": "address",
          "name": "to",
          "type": "address"
        },
        {
          "internalType": "uint256",
          "name": "tokenId",
          "type": "uint256"
        }
      ],
      "name": "safeTransferFrom",
      "outputs": [],
      "stateMutability": "nonpayable",
      "type": "function"
    },
    {
      "inputs": [
        {
          "internalType": "address",
          "name": "from",
          "type": "address"
        },
        {
          "internalType": "address",
          "name": "to",
          "type": "address"
        },
        {
          "internalType": "uint256",
          "name": "tokenId",
          "type": "uint256"
        },
        {
          "internalType": "bytes",
          "name": "data",
          "type": "bytes"
        }
      ],
      "name": "safeTransferFrom",
      "outputs": [],
      "stateMutability": "nonpayable",
      "type": "function"
    },
    {
      "inputs": [],
      "name": "saleIsActive",
      "outputs": [
        {
          "internalType": "bool",
          "name": "",
          "type": "bool"
        }
      ],
      "stateMutability": "view",
      "type": "function"
    },
    {
      "inputs": [
        {
          "internalType": "address[]",
          "name": "addresses",
          "type": "address[]"
        },
        {
          "internalType": "uint8",
          "name": "numAllowedToMint",
          "type": "uint8"
        }
      ],
      "name": "setAllowList",
      "outputs": [],
      "stateMutability": "nonpayable",
      "type": "function"
    },
    {
      "inputs": [
        {
          "internalType": "address",
          "name": "operator",
          "type": "address"
        },
        {
          "internalType": "bool",
          "name": "approved",
          "type": "bool"
        }
      ],
      "name": "setApprovalForAll",
      "outputs": [],
      "stateMutability": "nonpayable",
      "type": "function"
    },
    {
      "inputs": [
        {
          "internalType": "bool",
          "name": "_isAllowListActive",
          "type": "bool"
        }
      ],
      "name": "setIsAllowListActive",
      "outputs": [],
      "stateMutability": "nonpayable",
      "type": "function"
    },
    {
      "inputs": [
        {
          "internalType": "bool",
          "name": "_isBlindBoxOpen",
          "type": "bool"
        },
        {
          "internalType": "string",
          "name": "_ticketURI",
          "type": "string"
        }
      ],
      "name": "setIsBlindBoxOpen",
      "outputs": [],
      "stateMutability": "nonpayable",
      "type": "function"
    },
    {
      "inputs": [
        {
          "internalType": "bool",
          "name": "_newState",
          "type": "bool"
        }
      ],
      "name": "setSaleState",
      "outputs": [],
      "stateMutability": "nonpayable",
      "type": "function"
    },
    {
      "inputs": [
        {
          "internalType": "bytes4",
          "name": "interfaceId",
          "type": "bytes4"
        }
      ],
      "name": "supportsInterface",
      "outputs": [
        {
          "internalType": "bool",
          "name": "",
          "type": "bool"
        }
      ],
      "stateMutability": "view",
      "type": "function"
    },
    {
      "inputs": [],
      "name": "symbol",
      "outputs": [
        {
          "internalType": "string",
          "name": "",
          "type": "string"
        }
      ],
      "stateMutability": "view",
      "type": "function"
    },
    {
      "inputs": [
        {
          "internalType": "uint256",
          "name": "tokenId",
          "type": "uint256"
        }
      ],
      "name": "tokenURI",
      "outputs": [
        {
          "internalType": "string",
          "name": "",
          "type": "string"
        }
      ],
      "stateMutability": "view",
      "type": "function"
    },
    {
      "inputs": [
        {
          "internalType": "address",
          "name": "from",
          "type": "address"
        },
        {
          "internalType": "address",
          "name": "to",
          "type": "address"
        },
        {
          "internalType": "uint256",
          "name": "tokenId",
          "type": "uint256"
        }
      ],
      "name": "transferFrom",
      "outputs": [],
      "stateMutability": "nonpayable",
      "type": "function"
    }
  ],
  "transactionHash": "0xe199dbfb517acb8f9cea23caf4a7b4942f4d21f37fc6959c20ae0abaa179d974",
  "args": [],
  "numDeployments": 4,
  "solcInputHash": "0e4f62bf2db35409fbdef0c0e2e1a72e",
  "bytecode": "0x608060405260405180608001604052806044815260200162003e8b60449139600c908051906020019062000035929190620001a4565b503480156200004357600080fd5b506040518060400160405280600c81526020017f476f2054726176656c696e6700000000000000000000000000000000000000008152506040518060400160405280600b81526020017f54726176205469636b65740000000000000000000000000000000000000000008152508160009080519060200190620000c8929190620001a4565b508060019080519060200190620000e1929190620001a4565b505050600160098190555033600660006101000a81548173ffffffffffffffffffffffffffffffffffffffff021916908373ffffffffffffffffffffffffffffffffffffffff1602179055506000600860006101000a81548160ff0219169083151502179055506000600660146101000a81548160ff0219169083151502179055506000600a60006101000a81548160ff021916908315150217905550600c600b90805462000190906200031b565b6200019d92919062000235565b5062000351565b828054620001b2906200031b565b90600052602060002090601f016020900481019282620001d6576000855562000222565b82601f10620001f157805160ff191683800117855562000222565b8280016001018555821562000222579182015b828111156200022157825182559160200191906001019062000204565b5b509050620002319190620002cd565b5090565b82805462000243906200031b565b90600052602060002090601f016020900481019282620002675760008555620002ba565b82601f106200027a5780548555620002ba565b82800160010185558215620002ba57600052602060002091601f016020900482015b82811115620002b95782548255916001019190600101906200029c565b5b509050620002c99190620002cd565b5090565b5b80821115620002e8576000816000905550600101620002ce565b5090565b7f4e487b7100000000000000000000000000000000000000000000000000000000600052602260045260246000fd5b600060028204905060018216806200033457607f821691505b602082108114156200034b576200034a620002ec565b5b50919050565b613b2a80620003616000396000f3fe6080604052600436106101cd5760003560e01c806370a08231116100f7578063c4e3709511610095578063e707548211610064578063e70754821461067e578063e985e9c5146106a9578063eb8d2444146106e6578063f75f25e214610711576101cd565b8063c4e37095146105d3578063c87b56dd146105fc578063ddff5b1c14610639578063e498b1de14610655576101cd565b806395d89b41116100d157806395d89b41146105265780639884087414610551578063a22cb46514610581578063b88d4fde146105aa576101cd565b806370a0823114610497578063718bc4af146104d45780638295784d146104fd576101cd565b806329fc6bae1161016f57806342842e0e1161013e57806342842e0e146103db5780634de3241c146104045780636352211e1461042f5780636e02007d1461046c576101cd565b806329fc6bae1461031f57806330ca9fd81461034a578063375a069a146103875780633a31a76b146103b0576101cd565b8063095ea7b3116101ab578063095ea7b3146102775780630b4d9371146102a0578063212e8f67146102cb57806323b872dd146102f6576101cd565b806301ffc9a7146101d257806306fdde031461020f578063081812fc1461023a575b600080fd5b3480156101de57600080fd5b506101f960048036038101906101f4919061262a565b610728565b6040516102069190612672565b60405180910390f35b34801561021b57600080fd5b5061022461080a565b6040516102319190612726565b60405180910390f35b34801561024657600080fd5b50610261600480360381019061025c919061277e565b61089c565b60405161026e91906127ec565b60405180910390f35b34801561028357600080fd5b5061029e60048036038101906102999190612833565b6108e2565b005b3480156102ac57600080fd5b506102b56109fa565b6040516102c29190612672565b60405180910390f35b3480156102d757600080fd5b506102e0610a0d565b6040516102ed9190612882565b60405180910390f35b34801561030257600080fd5b5061031d6004803603810190610318919061289d565b610a13565b005b34801561032b57600080fd5b50610334610a73565b6040516103419190612672565b60405180910390f35b34801561035657600080fd5b50610371600480360381019061036c91906128f0565b610a86565b60405161037e9190612939565b60405180910390f35b34801561039357600080fd5b506103ae60048036038101906103a9919061277e565b610adc565b005b3480156103bc57600080fd5b506103c5610c70565b6040516103d29190612882565b60405180910390f35b3480156103e757600080fd5b5061040260048036038101906103fd919061289d565b610c7b565b005b34801561041057600080fd5b50610419610c9b565b6040516104269190612939565b60405180910390f35b34801561043b57600080fd5b506104566004803603810190610451919061277e565b610ca0565b60405161046391906127ec565b60405180910390f35b34801561047857600080fd5b50610481610d52565b60405161048e9190612882565b60405180910390f35b3480156104a357600080fd5b506104be60048036038101906104b991906128f0565b610d5c565b6040516104cb9190612882565b60405180910390f35b3480156104e057600080fd5b506104fb60048036038101906104f69190612980565b610e14565b005b34801561050957600080fd5b50610524600480360381019061051f9190612a3e565b610ec1565b005b34801561053257600080fd5b5061053b610ff7565b6040516105489190612726565b60405180910390f35b61056b60048036038101906105669190612a9e565b611089565b6040516105789190612882565b60405180910390f35b34801561058d57600080fd5b506105a860048036038101906105a39190612acb565b6112c4565b005b3480156105b657600080fd5b506105d160048036038101906105cc9190612c3b565b6112da565b005b3480156105df57600080fd5b506105fa60048036038101906105f59190612980565b61133c565b005b34801561060857600080fd5b50610623600480360381019061061e919061277e565b6113e9565b6040516106309190612726565b60405180910390f35b610653600480360381019061064e9190612a9e565b61146c565b005b34801561066157600080fd5b5061067c60048036038101906106779190612d5f565b6115d0565b005b34801561068a57600080fd5b506106936116d8565b6040516106a09190612882565b60405180910390f35b3480156106b557600080fd5b506106d060048036038101906106cb9190612dbb565b6116ef565b6040516106dd9190612672565b60405180910390f35b3480156106f257600080fd5b506106fb611783565b6040516107089190612672565b60405180910390f35b34801561071d57600080fd5b50610726611796565b005b60007f80ac58cd000000000000000000000000000000000000000000000000000000007bffffffffffffffffffffffffffffffffffffffffffffffffffffffff1916827bffffffffffffffffffffffffffffffffffffffffffffffffffffffff191614806107f357507f5b5e139f000000000000000000000000000000000000000000000000000000007bffffffffffffffffffffffffffffffffffffffffffffffffffffffff1916827bffffffffffffffffffffffffffffffffffffffffffffffffffffffff1916145b8061080357506108028261186a565b5b9050919050565b60606000805461081990612e2a565b80601f016020809104026020016040519081016040528092919081815260200182805461084590612e2a565b80156108925780601f1061086757610100808354040283529160200191610892565b820191906000526020600020905b81548152906001019060200180831161087557829003601f168201915b5050505050905090565b60006108a7826118d4565b6004600083815260200190815260200160002060009054906101000a900473ffffffffffffffffffffffffffffffffffffffff169050919050565b60006108ed82610ca0565b90508073ffffffffffffffffffffffffffffffffffffffff168373ffffffffffffffffffffffffffffffffffffffff16141561095e576040517f08c379a000000000000000000000000000000000000000000000000000000000815260040161095590612ece565b60405180910390fd5b8073ffffffffffffffffffffffffffffffffffffffff1661097d61191f565b73ffffffffffffffffffffffffffffffffffffffff1614806109ac57506109ab816109a661191f565b6116ef565b5b6109eb576040517f08c379a00000000000000000000000000000000000000000000000000000000081526004016109e290612f60565b60405180910390fd5b6109f58383611927565b505050565b600a60009054906101000a900460ff1681565b6103e881565b610a24610a1e61191f565b826119e0565b610a63576040517f08c379a0000000000000000000000000000000000000000000000000000000008152600401610a5a90612ff2565b60405180910390fd5b610a6e838383611a75565b505050565b600660149054906101000a900460ff1681565b6000600760008373ffffffffffffffffffffffffffffffffffffffff1673ffffffffffffffffffffffffffffffffffffffff16815260200190815260200160002060009054906101000a900460ff169050919050565b600660009054906101000a900473ffffffffffffffffffffffffffffffffffffffff1673ffffffffffffffffffffffffffffffffffffffff163373ffffffffffffffffffffffffffffffffffffffff1614610b6c576040517f08c379a0000000000000000000000000000000000000000000000000000000008152600401610b639061305e565b60405180910390fd5b6103e881600954610b7d91906130ad565b10610bbd576040517f08c379a0000000000000000000000000000000000000000000000000000000008152600401610bb49061314f565b60405180910390fd5b600860009054906101000a900460ff1680610be45750600660149054906101000a900460ff165b610c23576040517f08c379a0000000000000000000000000000000000000000000000000000000008152600401610c1a906131bb565b60405180910390fd5b60005b81811015610c5857610c453382600954610c4091906130ad565b611cdc565b8080610c50906131db565b915050610c26565b5080600954610c6791906130ad565b60098190555050565b6000620f4240905090565b610c96838383604051806020016040528060008152506112da565b505050565b600381565b6000806002600084815260200190815260200160002060009054906101000a900473ffffffffffffffffffffffffffffffffffffffff169050600073ffffffffffffffffffffffffffffffffffffffff168173ffffffffffffffffffffffffffffffffffffffff161415610d49576040517f08c379a0000000000000000000000000000000000000000000000000000000008152600401610d4090613270565b60405180910390fd5b80915050919050565b6000600954905090565b60008073ffffffffffffffffffffffffffffffffffffffff168273ffffffffffffffffffffffffffffffffffffffff161415610dcd576040517f08c379a0000000000000000000000000000000000000000000000000000000008152600401610dc490613302565b60405180910390fd5b600360008373ffffffffffffffffffffffffffffffffffffffff1673ffffffffffffffffffffffffffffffffffffffff168152602001908152602001600020549050919050565b600660009054906101000a900473ffffffffffffffffffffffffffffffffffffffff1673ffffffffffffffffffffffffffffffffffffffff163373ffffffffffffffffffffffffffffffffffffffff1614610ea4576040517f08c379a0000000000000000000000000000000000000000000000000000000008152600401610e9b9061305e565b60405180910390fd5b80600660146101000a81548160ff02191690831515021790555050565b600660009054906101000a900473ffffffffffffffffffffffffffffffffffffffff1673ffffffffffffffffffffffffffffffffffffffff163373ffffffffffffffffffffffffffffffffffffffff1614610f51576040517f08c379a0000000000000000000000000000000000000000000000000000000008152600401610f489061305e565b60405180910390fd5b60005b83839050811015610ff1578160076000868685818110610f7757610f76613322565b5b9050602002016020810190610f8c91906128f0565b73ffffffffffffffffffffffffffffffffffffffff1673ffffffffffffffffffffffffffffffffffffffff16815260200190815260200160002060006101000a81548160ff021916908360ff1602179055508080610fe9906131db565b915050610f54565b50505050565b60606001805461100690612e2a565b80601f016020809104026020016040519081016040528092919081815260200182805461103290612e2a565b801561107f5780601f106110545761010080835404028352916020019161107f565b820191906000526020600020905b81548152906001019060200180831161106257829003601f168201915b5050505050905090565b60006103e88260ff1660095461109f91906130ad565b106110df576040517f08c379a00000000000000000000000000000000000000000000000000000000081526004016110d69061314f565b60405180910390fd5b600860009054906101000a900460ff16806111065750600660149054906101000a900460ff165b611145576040517f08c379a000000000000000000000000000000000000000000000000000000000815260040161113c906131bb565b60405180910390fd5b600161115033610d5c565b106111be57600360ff168260ff16111561119f576040517f08c379a00000000000000000000000000000000000000000000000000000000081526004016111969061339d565b60405180910390fd5b8160ff16620f42406111b191906133bd565b3410156111bd57600080fd5b5b60006111c933610d5c565b1480156111de575060016111dc33610d5c565b115b1561126457600160036111f19190613417565b60ff168260ff161115611239576040517f08c379a00000000000000000000000000000000000000000000000000000000081526004016112309061339d565b60405180910390fd5b600182611246919061344e565b60ff16620f424061125791906133bd565b34101561126357600080fd5b5b60005b8260ff168160ff1610156112a25761128f338260ff1660095461128a91906130ad565b611cdc565b808061129a90613482565b915050611267565b508160ff166009546112b491906130ad565b6009819055506009549050919050565b6112d66112cf61191f565b8383611cfa565b5050565b6112eb6112e561191f565b836119e0565b61132a576040517f08c379a000000000000000000000000000000000000000000000000000000000815260040161132190612ff2565b60405180910390fd5b61133684848484611e67565b50505050565b600660009054906101000a900473ffffffffffffffffffffffffffffffffffffffff1673ffffffffffffffffffffffffffffffffffffffff163373ffffffffffffffffffffffffffffffffffffffff16146113cc576040517f08c379a00000000000000000000000000000000000000000000000000000000081526004016113c39061305e565b60405180910390fd5b80600860006101000a81548160ff02191690831515021790555050565b60606113f4826118d4565b60006113fe611ec3565b9050600a60009054906101000a900460ff16611439578060405160200161142591906134e8565b604051602081830303815290604052611464565b8061144384611f55565b60405160200161145492919061354b565b6040516020818303038152906040525b915050919050565b600660149054906101000a900460ff166114bb576040517f08c379a00000000000000000000000000000000000000000000000000000000081526004016114b2906135c6565b60405180910390fd5b600760003373ffffffffffffffffffffffffffffffffffffffff1673ffffffffffffffffffffffffffffffffffffffff16815260200190815260200160002060009054906101000a900460ff1660ff168160ff161115611550576040517f08c379a000000000000000000000000000000000000000000000000000000000815260040161154790613632565b60405180910390fd5b61155981611089565b5080600760003373ffffffffffffffffffffffffffffffffffffffff1673ffffffffffffffffffffffffffffffffffffffff16815260200190815260200160002060008282829054906101000a900460ff166115b5919061344e565b92506101000a81548160ff021916908360ff16021790555050565b600660009054906101000a900473ffffffffffffffffffffffffffffffffffffffff1673ffffffffffffffffffffffffffffffffffffffff163373ffffffffffffffffffffffffffffffffffffffff1614611660576040517f08c379a00000000000000000000000000000000000000000000000000000000081526004016116579061305e565b60405180910390fd5b81600a60006101000a81548160ff02191690831515021790555080600b908051906020019061169092919061251b565b50600160095411156116d45760005b6009548110156116d2576116be6001826116b991906130ad565b6113e9565b5080806116ca906131db565b91505061169f565b505b5050565b60006009546103e86116ea9190613652565b905090565b6000600560008473ffffffffffffffffffffffffffffffffffffffff1673ffffffffffffffffffffffffffffffffffffffff16815260200190815260200160002060008373ffffffffffffffffffffffffffffffffffffffff1673ffffffffffffffffffffffffffffffffffffffff16815260200190815260200160002060009054906101000a900460ff16905092915050565b600860009054906101000a900460ff1681565b600660009054906101000a900473ffffffffffffffffffffffffffffffffffffffff1673ffffffffffffffffffffffffffffffffffffffff163373ffffffffffffffffffffffffffffffffffffffff1614611826576040517f08c379a000000000000000000000000000000000000000000000000000000000815260040161181d9061305e565b60405180910390fd5b6000600660006101000a81548173ffffffffffffffffffffffffffffffffffffffff021916908373ffffffffffffffffffffffffffffffffffffffff160217905550565b60007f01ffc9a7000000000000000000000000000000000000000000000000000000007bffffffffffffffffffffffffffffffffffffffffffffffffffffffff1916827bffffffffffffffffffffffffffffffffffffffffffffffffffffffff1916149050919050565b6118dd816120b6565b61191c576040517f08c379a000000000000000000000000000000000000000000000000000000000815260040161191390613270565b60405180910390fd5b50565b600033905090565b816004600083815260200190815260200160002060006101000a81548173ffffffffffffffffffffffffffffffffffffffff021916908373ffffffffffffffffffffffffffffffffffffffff160217905550808273ffffffffffffffffffffffffffffffffffffffff1661199a83610ca0565b73ffffffffffffffffffffffffffffffffffffffff167f8c5be1e5ebec7d5bd14f71427d1e84f3dd0314c0f7b2291e5b200ac8c7c3b92560405160405180910390a45050565b6000806119ec83610ca0565b90508073ffffffffffffffffffffffffffffffffffffffff168473ffffffffffffffffffffffffffffffffffffffff161480611a2e5750611a2d81856116ef565b5b80611a6c57508373ffffffffffffffffffffffffffffffffffffffff16611a548461089c565b73ffffffffffffffffffffffffffffffffffffffff16145b91505092915050565b8273ffffffffffffffffffffffffffffffffffffffff16611a9582610ca0565b73ffffffffffffffffffffffffffffffffffffffff1614611aeb576040517f08c379a0000000000000000000000000000000000000000000000000000000008152600401611ae2906136f8565b60405180910390fd5b600073ffffffffffffffffffffffffffffffffffffffff168273ffffffffffffffffffffffffffffffffffffffff161415611b5b576040517f08c379a0000000000000000000000000000000000000000000000000000000008152600401611b529061378a565b60405180910390fd5b611b66838383612122565b611b71600082611927565b6001600360008573ffffffffffffffffffffffffffffffffffffffff1673ffffffffffffffffffffffffffffffffffffffff1681526020019081526020016000206000828254611bc19190613652565b925050819055506001600360008473ffffffffffffffffffffffffffffffffffffffff1673ffffffffffffffffffffffffffffffffffffffff1681526020019081526020016000206000828254611c1891906130ad565b92505081905550816002600083815260200190815260200160002060006101000a81548173ffffffffffffffffffffffffffffffffffffffff021916908373ffffffffffffffffffffffffffffffffffffffff160217905550808273ffffffffffffffffffffffffffffffffffffffff168473ffffffffffffffffffffffffffffffffffffffff167fddf252ad1be2c89b69c2b068fc378daa952ba7f163c4a11628f55a4df523b3ef60405160405180910390a4611cd7838383612127565b505050565b611cf682826040518060200160405280600081525061212c565b5050565b8173ffffffffffffffffffffffffffffffffffffffff168373ffffffffffffffffffffffffffffffffffffffff161415611d69576040517f08c379a0000000000000000000000000000000000000000000000000000000008152600401611d60906137f6565b60405180910390fd5b80600560008573ffffffffffffffffffffffffffffffffffffffff1673ffffffffffffffffffffffffffffffffffffffff16815260200190815260200160002060008473ffffffffffffffffffffffffffffffffffffffff1673ffffffffffffffffffffffffffffffffffffffff16815260200190815260200160002060006101000a81548160ff0219169083151502179055508173ffffffffffffffffffffffffffffffffffffffff168373ffffffffffffffffffffffffffffffffffffffff167f17307eab39ab6107e8899845ad3d59bd9653f200f220920489ca2b5937696c3183604051611e5a9190612672565b60405180910390a3505050565b611e72848484611a75565b611e7e84848484612187565b611ebd576040517f08c379a0000000000000000000000000000000000000000000000000000000008152600401611eb490613888565b60405180910390fd5b50505050565b6060600b8054611ed290612e2a565b80601f0160208091040260200160405190810160405280929190818152602001828054611efe90612e2a565b8015611f4b5780601f10611f2057610100808354040283529160200191611f4b565b820191906000526020600020905b815481529060010190602001808311611f2e57829003601f168201915b5050505050905090565b60606000821415611f9d576040518060400160405280600181526020017f300000000000000000000000000000000000000000000000000000000000000081525090506120b1565b600082905060005b60008214611fcf578080611fb8906131db565b915050600a82611fc891906138d7565b9150611fa5565b60008167ffffffffffffffff811115611feb57611fea612b10565b5b6040519080825280601f01601f19166020018201604052801561201d5781602001600182028036833780820191505090505b5090505b600085146120aa576001826120369190613652565b9150600a856120459190613908565b603061205191906130ad565b60f81b81838151811061206757612066613322565b5b60200101907effffffffffffffffffffffffffffffffffffffffffffffffffffffffffffff1916908160001a905350600a856120a391906138d7565b9450612021565b8093505050505b919050565b60008073ffffffffffffffffffffffffffffffffffffffff166002600084815260200190815260200160002060009054906101000a900473ffffffffffffffffffffffffffffffffffffffff1673ffffffffffffffffffffffffffffffffffffffff1614159050919050565b505050565b505050565b612136838361231e565b6121436000848484612187565b612182576040517f08c379a000000000000000000000000000000000000000000000000000000000815260040161217990613888565b60405180910390fd5b505050565b60006121a88473ffffffffffffffffffffffffffffffffffffffff166124f8565b15612311578373ffffffffffffffffffffffffffffffffffffffff1663150b7a026121d161191f565b8786866040518563ffffffff1660e01b81526004016121f3949392919061398e565b602060405180830381600087803b15801561220d57600080fd5b505af192505050801561223e57506040513d601f19601f8201168201806040525081019061223b91906139ef565b60015b6122c1573d806000811461226e576040519150601f19603f3d011682016040523d82523d6000602084013e612273565b606091505b506000815114156122b9576040517f08c379a00000000000000000000000000000000000000000000000000000000081526004016122b090613888565b60405180910390fd5b805181602001fd5b63150b7a0260e01b7bffffffffffffffffffffffffffffffffffffffffffffffffffffffff1916817bffffffffffffffffffffffffffffffffffffffffffffffffffffffff191614915050612316565b600190505b949350505050565b600073ffffffffffffffffffffffffffffffffffffffff168273ffffffffffffffffffffffffffffffffffffffff16141561238e576040517f08c379a000000000000000000000000000000000000000000000000000000000815260040161238590613a68565b60405180910390fd5b612397816120b6565b156123d7576040517f08c379a00000000000000000000000000000000000000000000000000000000081526004016123ce90613ad4565b60405180910390fd5b6123e360008383612122565b6001600360008473ffffffffffffffffffffffffffffffffffffffff1673ffffffffffffffffffffffffffffffffffffffff168152602001908152602001600020600082825461243391906130ad565b92505081905550816002600083815260200190815260200160002060006101000a81548173ffffffffffffffffffffffffffffffffffffffff021916908373ffffffffffffffffffffffffffffffffffffffff160217905550808273ffffffffffffffffffffffffffffffffffffffff16600073ffffffffffffffffffffffffffffffffffffffff167fddf252ad1be2c89b69c2b068fc378daa952ba7f163c4a11628f55a4df523b3ef60405160405180910390a46124f460008383612127565b5050565b6000808273ffffffffffffffffffffffffffffffffffffffff163b119050919050565b82805461252790612e2a565b90600052602060002090601f0160209004810192826125495760008555612590565b82601f1061256257805160ff1916838001178555612590565b82800160010185558215612590579182015b8281111561258f578251825591602001919060010190612574565b5b50905061259d91906125a1565b5090565b5b808211156125ba5760008160009055506001016125a2565b5090565b6000604051905090565b600080fd5b600080fd5b60007fffffffff0000000000000000000000000000000000000000000000000000000082169050919050565b612607816125d2565b811461261257600080fd5b50565b600081359050612624816125fe565b92915050565b6000602082840312156126405761263f6125c8565b5b600061264e84828501612615565b91505092915050565b60008115159050919050565b61266c81612657565b82525050565b60006020820190506126876000830184612663565b92915050565b600081519050919050565b600082825260208201905092915050565b60005b838110156126c75780820151818401526020810190506126ac565b838111156126d6576000848401525b50505050565b6000601f19601f8301169050919050565b60006126f88261268d565b6127028185612698565b93506127128185602086016126a9565b61271b816126dc565b840191505092915050565b6000602082019050818103600083015261274081846126ed565b905092915050565b6000819050919050565b61275b81612748565b811461276657600080fd5b50565b60008135905061277881612752565b92915050565b600060208284031215612794576127936125c8565b5b60006127a284828501612769565b91505092915050565b600073ffffffffffffffffffffffffffffffffffffffff82169050919050565b60006127d6826127ab565b9050919050565b6127e6816127cb565b82525050565b600060208201905061280160008301846127dd565b92915050565b612810816127cb565b811461281b57600080fd5b50565b60008135905061282d81612807565b92915050565b6000806040838503121561284a576128496125c8565b5b60006128588582860161281e565b925050602061286985828601612769565b9150509250929050565b61287c81612748565b82525050565b60006020820190506128976000830184612873565b92915050565b6000806000606084860312156128b6576128b56125c8565b5b60006128c48682870161281e565b93505060206128d58682870161281e565b92505060406128e686828701612769565b9150509250925092565b600060208284031215612906576129056125c8565b5b60006129148482850161281e565b91505092915050565b600060ff82169050919050565b6129338161291d565b82525050565b600060208201905061294e600083018461292a565b92915050565b61295d81612657565b811461296857600080fd5b50565b60008135905061297a81612954565b92915050565b600060208284031215612996576129956125c8565b5b60006129a48482850161296b565b91505092915050565b600080fd5b600080fd5b600080fd5b60008083601f8401126129d2576129d16129ad565b5b8235905067ffffffffffffffff8111156129ef576129ee6129b2565b5b602083019150836020820283011115612a0b57612a0a6129b7565b5b9250929050565b612a1b8161291d565b8114612a2657600080fd5b50565b600081359050612a3881612a12565b92915050565b600080600060408486031215612a5757612a566125c8565b5b600084013567ffffffffffffffff811115612a7557612a746125cd565b5b612a81868287016129bc565b93509350506020612a9486828701612a29565b9150509250925092565b600060208284031215612ab457612ab36125c8565b5b6000612ac284828501612a29565b91505092915050565b60008060408385031215612ae257612ae16125c8565b5b6000612af08582860161281e565b9250506020612b018582860161296b565b9150509250929050565b600080fd5b7f4e487b7100000000000000000000000000000000000000000000000000000000600052604160045260246000fd5b612b48826126dc565b810181811067ffffffffffffffff82111715612b6757612b66612b10565b5b80604052505050565b6000612b7a6125be565b9050612b868282612b3f565b919050565b600067ffffffffffffffff821115612ba657612ba5612b10565b5b612baf826126dc565b9050602081019050919050565b82818337600083830152505050565b6000612bde612bd984612b8b565b612b70565b905082815260208101848484011115612bfa57612bf9612b0b565b5b612c05848285612bbc565b509392505050565b600082601f830112612c2257612c216129ad565b5b8135612c32848260208601612bcb565b91505092915050565b60008060008060808587031215612c5557612c546125c8565b5b6000612c638782880161281e565b9450506020612c748782880161281e565b9350506040612c8587828801612769565b925050606085013567ffffffffffffffff811115612ca657612ca56125cd565b5b612cb287828801612c0d565b91505092959194509250565b600067ffffffffffffffff821115612cd957612cd8612b10565b5b612ce2826126dc565b9050602081019050919050565b6000612d02612cfd84612cbe565b612b70565b905082815260208101848484011115612d1e57612d1d612b0b565b5b612d29848285612bbc565b509392505050565b600082601f830112612d4657612d456129ad565b5b8135612d56848260208601612cef565b91505092915050565b60008060408385031215612d7657612d756125c8565b5b6000612d848582860161296b565b925050602083013567ffffffffffffffff811115612da557612da46125cd565b5b612db185828601612d31565b9150509250929050565b60008060408385031215612dd257612dd16125c8565b5b6000612de08582860161281e565b9250506020612df18582860161281e565b9150509250929050565b7f4e487b7100000000000000000000000000000000000000000000000000000000600052602260045260246000fd5b60006002820490506001821680612e4257607f821691505b60208210811415612e5657612e55612dfb565b5b50919050565b7f4552433732313a20617070726f76616c20746f2063757272656e74206f776e6560008201527f7200000000000000000000000000000000000000000000000000000000000000602082015250565b6000612eb8602183612698565b9150612ec382612e5c565b604082019050919050565b60006020820190508181036000830152612ee781612eab565b9050919050565b7f4552433732313a20617070726f76652063616c6c6572206973206e6f7420746f60008201527f6b656e206f776e6572206e6f7220617070726f76656420666f7220616c6c0000602082015250565b6000612f4a603e83612698565b9150612f5582612eee565b604082019050919050565b60006020820190508181036000830152612f7981612f3d565b9050919050565b7f4552433732313a2063616c6c6572206973206e6f7420746f6b656e206f776e6560008201527f72206e6f7220617070726f766564000000000000000000000000000000000000602082015250565b6000612fdc602e83612698565b9150612fe782612f80565b604082019050919050565b6000602082019050818103600083015261300b81612fcf565b9050919050565b7f4f6e6c79206465706c6f79657200000000000000000000000000000000000000600082015250565b6000613048600d83612698565b915061305382613012565b602082019050919050565b600060208201905081810360008301526130778161303b565b9050919050565b7f4e487b7100000000000000000000000000000000000000000000000000000000600052601160045260246000fd5b60006130b882612748565b91506130c383612748565b9250827fffffffffffffffffffffffffffffffffffffffffffffffffffffffffffffffff038211156130f8576130f761307e565b5b828201905092915050565b7f5469636b65742073616c65206c696d6974207265616368656400000000000000600082015250565b6000613139601983612698565b915061314482613103565b602082019050919050565b600060208201905081810360008301526131688161312c565b9050919050565b7f5469636b65747320617265206e6f7420616c6c6f77656420746f2073616c6500600082015250565b60006131a5601f83612698565b91506131b08261316f565b602082019050919050565b600060208201905081810360008301526131d481613198565b9050919050565b60006131e682612748565b91507fffffffffffffffffffffffffffffffffffffffffffffffffffffffffffffffff8214156132195761321861307e565b5b600182019050919050565b7f4552433732313a20696e76616c696420746f6b656e2049440000000000000000600082015250565b600061325a601883612698565b915061326582613224565b602082019050919050565b600060208201905081810360008301526132898161324d565b9050919050565b7f4552433732313a2061646472657373207a65726f206973206e6f74206120766160008201527f6c6964206f776e65720000000000000000000000000000000000000000000000602082015250565b60006132ec602983612698565b91506132f782613290565b604082019050919050565b6000602082019050818103600083015261331b816132df565b9050919050565b7f4e487b7100000000000000000000000000000000000000000000000000000000600052603260045260246000fd5b7f4578636565646564206d6178207469636b657473207075726368617365000000600082015250565b6000613387601d83612698565b915061339282613351565b602082019050919050565b600060208201905081810360008301526133b68161337a565b9050919050565b60006133c882612748565b91506133d383612748565b9250817fffffffffffffffffffffffffffffffffffffffffffffffffffffffffffffffff048311821515161561340c5761340b61307e565b5b828202905092915050565b60006134228261291d565b915061342d8361291d565b92508260ff038211156134435761344261307e565b5b828201905092915050565b60006134598261291d565b91506134648361291d565b9250828210156134775761347661307e565b5b828203905092915050565b600061348d8261291d565b915060ff8214156134a1576134a061307e565b5b600182019050919050565b600081905092915050565b60006134c28261268d565b6134cc81856134ac565b93506134dc8185602086016126a9565b80840191505092915050565b60006134f482846134b7565b915081905092915050565b7f2e6a736f6e000000000000000000000000000000000000000000000000000000600082015250565b60006135356005836134ac565b9150613540826134ff565b600582019050919050565b600061355782856134b7565b915061356382846134b7565b915061356e82613528565b91508190509392505050565b7f416c6c6f77206c697374206973206e6f74206163746976650000000000000000600082015250565b60006135b0601883612698565b91506135bb8261357a565b602082019050919050565b600060208201905081810360008301526135df816135a3565b9050919050565b7f457863656564206d617820617661696c61626c6520746f207075726368617365600082015250565b600061361c602083612698565b9150613627826135e6565b602082019050919050565b6000602082019050818103600083015261364b8161360f565b9050919050565b600061365d82612748565b915061366883612748565b92508282101561367b5761367a61307e565b5b828203905092915050565b7f4552433732313a207472616e736665722066726f6d20696e636f72726563742060008201527f6f776e6572000000000000000000000000000000000000000000000000000000602082015250565b60006136e2602583612698565b91506136ed82613686565b604082019050919050565b60006020820190508181036000830152613711816136d5565b9050919050565b7f4552433732313a207472616e7366657220746f20746865207a65726f2061646460008201527f7265737300000000000000000000000000000000000000000000000000000000602082015250565b6000613774602483612698565b915061377f82613718565b604082019050919050565b600060208201905081810360008301526137a381613767565b9050919050565b7f4552433732313a20617070726f766520746f2063616c6c657200000000000000600082015250565b60006137e0601983612698565b91506137eb826137aa565b602082019050919050565b6000602082019050818103600083015261380f816137d3565b9050919050565b7f4552433732313a207472616e7366657220746f206e6f6e20455243373231526560008201527f63656976657220696d706c656d656e7465720000000000000000000000000000602082015250565b6000613872603283612698565b915061387d82613816565b604082019050919050565b600060208201905081810360008301526138a181613865565b9050919050565b7f4e487b7100000000000000000000000000000000000000000000000000000000600052601260045260246000fd5b60006138e282612748565b91506138ed83612748565b9250826138fd576138fc6138a8565b5b828204905092915050565b600061391382612748565b915061391e83612748565b92508261392e5761392d6138a8565b5b828206905092915050565b600081519050919050565b600082825260208201905092915050565b600061396082613939565b61396a8185613944565b935061397a8185602086016126a9565b613983816126dc565b840191505092915050565b60006080820190506139a360008301876127dd565b6139b060208301866127dd565b6139bd6040830185612873565b81810360608301526139cf8184613955565b905095945050505050565b6000815190506139e9816125fe565b92915050565b600060208284031215613a0557613a046125c8565b5b6000613a13848285016139da565b91505092915050565b7f4552433732313a206d696e7420746f20746865207a65726f2061646472657373600082015250565b6000613a52602083612698565b9150613a5d82613a1c565b602082019050919050565b60006020820190508181036000830152613a8181613a45565b9050919050565b7f4552433732313a20746f6b656e20616c7265616479206d696e74656400000000600082015250565b6000613abe601c83612698565b9150613ac982613a88565b602082019050919050565b60006020820190508181036000830152613aed81613ab1565b905091905056fea2646970667358221220a671cf774e99b607d14f7866652b63fb08455b845d9ee0083ccce5caccc9665b64736f6c6343000808003368747470733a2f2f697066732e696f2f697066732f516d56446e564e4b66725751765577454c4342534b34596a4c327148513875456e694a687777464a3867633762712f",
  "devdoc": {
    "kind": "dev",
    "methods": {
      "approve(address,uint256)": {
        "details": "See {IERC721-approve}."
      },
      "balanceOf(address)": {
        "details": "See {IERC721-balanceOf}."
      },
      "devMint(uint256)": {
        "details": "deployer can mint specific ammount of nft token without paying ps. or use mintAllowList directally"
      },
      "dropDeployer()": {
        "details": "transfer the ownership of the contract to null address"
      },
      "getApproved(uint256)": {
        "details": "See {IERC721-getApproved}."
      },
      "isApprovedForAll(address,address)": {
        "details": "See {IERC721-isApprovedForAll}."
      },
      "mintTicket(uint8)": {
        "details": "free mint successfully for the first time minter however, once one own the nft, should pay to mint more (free mint, >1 mint cost). ps: if wanna random mint can use chainlink"
      },
      "name()": {
        "details": "See {IERC721Metadata-name}."
      },
      "ownerOf(uint256)": {
        "details": "See {IERC721-ownerOf}."
      },
      "safeTransferFrom(address,address,uint256)": {
        "details": "See {IERC721-safeTransferFrom}."
      },
      "safeTransferFrom(address,address,uint256,bytes)": {
        "details": "See {IERC721-safeTransferFrom}."
      },
      "setApprovalForAll(address,bool)": {
        "details": "See {IERC721-setApprovalForAll}."
      },
      "supportsInterface(bytes4)": {
        "details": "See {IERC165-supportsInterface}."
      },
      "symbol()": {
        "details": "See {IERC721Metadata-symbol}."
      },
      "tokenURI(uint256)": {
        "details": "See {IERC721Metadata-tokenURI}."
      },
      "transferFrom(address,address,uint256)": {
        "details": "See {IERC721-transferFrom}."
      }
    },
    "version": 1
  },
  "userdoc": {
    "kind": "user",
    "methods": {},
    "version": 1
  },
  "storageLayout": {
    "storage": [
      {
        "astId": 25,
        "contract": "contracts/travelNFT_mint.sol:travelNFT_mint",
        "label": "_name",
        "offset": 0,
        "slot": "0",
        "type": "t_string_storage"
      },
      {
        "astId": 27,
        "contract": "contracts/travelNFT_mint.sol:travelNFT_mint",
        "label": "_symbol",
        "offset": 0,
        "slot": "1",
        "type": "t_string_storage"
      },
      {
        "astId": 31,
        "contract": "contracts/travelNFT_mint.sol:travelNFT_mint",
        "label": "_owners",
        "offset": 0,
        "slot": "2",
        "type": "t_mapping(t_uint256,t_address)"
      },
      {
        "astId": 35,
        "contract": "contracts/travelNFT_mint.sol:travelNFT_mint",
        "label": "_balances",
        "offset": 0,
        "slot": "3",
        "type": "t_mapping(t_address,t_uint256)"
      },
      {
        "astId": 39,
        "contract": "contracts/travelNFT_mint.sol:travelNFT_mint",
        "label": "_tokenApprovals",
        "offset": 0,
        "slot": "4",
        "type": "t_mapping(t_uint256,t_address)"
      },
      {
        "astId": 45,
        "contract": "contracts/travelNFT_mint.sol:travelNFT_mint",
        "label": "_operatorApprovals",
        "offset": 0,
        "slot": "5",
        "type": "t_mapping(t_address,t_mapping(t_address,t_bool))"
      },
      {
        "astId": 1616,
        "contract": "contracts/travelNFT_mint.sol:travelNFT_mint",
        "label": "deployer",
        "offset": 0,
        "slot": "6",
        "type": "t_address_payable"
      },
      {
        "astId": 1618,
        "contract": "contracts/travelNFT_mint.sol:travelNFT_mint",
        "label": "isAllowListActive",
        "offset": 20,
        "slot": "6",
        "type": "t_bool"
      },
      {
        "astId": 1622,
        "contract": "contracts/travelNFT_mint.sol:travelNFT_mint",
        "label": "allowList",
        "offset": 0,
        "slot": "7",
        "type": "t_mapping(t_address,t_uint8)"
      },
      {
        "astId": 1624,
        "contract": "contracts/travelNFT_mint.sol:travelNFT_mint",
        "label": "saleIsActive",
        "offset": 0,
        "slot": "8",
        "type": "t_bool"
      },
      {
        "astId": 1626,
        "contract": "contracts/travelNFT_mint.sol:travelNFT_mint",
        "label": "s_saledConuter",
        "offset": 0,
        "slot": "9",
        "type": "t_uint256"
      },
      {
        "astId": 1637,
        "contract": "contracts/travelNFT_mint.sol:travelNFT_mint",
        "label": "blindBoxOpen",
        "offset": 0,
        "slot": "10",
        "type": "t_bool"
      },
      {
        "astId": 1639,
        "contract": "contracts/travelNFT_mint.sol:travelNFT_mint",
        "label": "ticketURI",
        "offset": 0,
        "slot": "11",
        "type": "t_string_storage"
      },
      {
        "astId": 1642,
        "contract": "contracts/travelNFT_mint.sol:travelNFT_mint",
        "label": "blindTokenURI",
        "offset": 0,
        "slot": "12",
        "type": "t_string_storage"
      }
    ],
    "types": {
      "t_address": {
        "encoding": "inplace",
        "label": "address",
        "numberOfBytes": "20"
      },
      "t_address_payable": {
        "encoding": "inplace",
        "label": "address payable",
        "numberOfBytes": "20"
      },
      "t_bool": {
        "encoding": "inplace",
        "label": "bool",
        "numberOfBytes": "1"
      },
      "t_mapping(t_address,t_bool)": {
        "encoding": "mapping",
        "key": "t_address",
        "label": "mapping(address => bool)",
        "numberOfBytes": "32",
        "value": "t_bool"
      },
      "t_mapping(t_address,t_mapping(t_address,t_bool))": {
        "encoding": "mapping",
        "key": "t_address",
        "label": "mapping(address => mapping(address => bool))",
        "numberOfBytes": "32",
        "value": "t_mapping(t_address,t_bool)"
      },
      "t_mapping(t_address,t_uint256)": {
        "encoding": "mapping",
        "key": "t_address",
        "label": "mapping(address => uint256)",
        "numberOfBytes": "32",
        "value": "t_uint256"
      },
      "t_mapping(t_address,t_uint8)": {
        "encoding": "mapping",
        "key": "t_address",
        "label": "mapping(address => uint8)",
        "numberOfBytes": "32",
        "value": "t_uint8"
      },
      "t_mapping(t_uint256,t_address)": {
        "encoding": "mapping",
        "key": "t_uint256",
        "label": "mapping(uint256 => address)",
        "numberOfBytes": "32",
        "value": "t_address"
      },
      "t_string_storage": {
        "encoding": "bytes",
        "label": "string",
        "numberOfBytes": "32"
      },
      "t_uint256": {
        "encoding": "inplace",
        "label": "uint256",
        "numberOfBytes": "32"
      },
      "t_uint8": {
        "encoding": "inplace",
        "label": "uint8",
        "numberOfBytes": "1"
      }
    }
  }
}